:10000000F8C000000C94000F0C942B0F0C94560FAA
:100010000C94810F0C94AC0F0C94D70F0C9402101D
:100020000C942D1034C40000D5C400000FC500008E
:1000300011C100000FC100000DC100000BC1000084
:1000400009C1000007C1000005C1000003C1000094
:1000500001C10000FFC00000FDC000000C9458105A
:10006000F9C000000C94D1130C940714F3C00000E5
:10007000F1C00000EFC00000EDC00000EBC00000C8
:10008000E9C00000E7C00000E5C00000E3C00000D8
:100090000C945D140C949314DDC00000DBC00000D0
:1000A000D9C00000D7C00000D5C00000D3C00000F8
:1000B000D1C00000CFC00000CDC00000CBC0000008
:1000C000C9C00000C7C000000C94240B0C94E914B4
:1000D0000C941F15BFC000000C9475150C94AB1543
:1000E000B9C0000000000A0B02090C0D0E0807033E
:1000F00004010000000000000000000000000000FB
:1001000000000000000000000000000000000000EF
:1001100012111000000000000000000000000000AC
:100120000000000000000000000001021020200874
:100130000810204010204080020102010804020142
:1001400001020408102040808040201008040201B1
:10015000800402018040201008040201080402010A
:100160000102040810204080010204081020408091
:1001700005050505070508080808020202020A0A23
:100180000808040404040101010101010101030341
:10019000030303030303040707070C0C0C0C0C0CEC
:1001A0000C0C0202020206060606060606060B0BE9
:1001B0000B0B0B0B0B0B00002200250028002B0063
:1001C0002E003100340002010000050108010B017E
:1001D00000002100240027002A002D0030003300F9
:1001E00001010000040107010A013014BC14481584
:1001F000D41511241FBECFEFD1E2DEBFCDBF00E08A
:100200000CBF12E0A0E0B2E0E4EBFCE200E00BBFC8
:1002100002C007900D92AE3AB107D9F726E0AEEAD8
:10022000B2E001C01D92A935B207E1F710E0C9EFB5
:10023000D0E000E006C021970109802FFE010E9456
:100240005016C53FD10780E00807A9F70E94930B1D
:100250000C945816D5CECF92DF92EF92FF92CF93A7
:10026000882351F16A017B01CFEFC80F20E030E015
:10027000A901CB01B6010E942F0C87FF11C0C70155
:10028000B60190580E94A00C9B01AC016C2F70E04D
:1002900090E080E0CF91FF90EF90DF90CF90B2C0E0
:1002A000C701B6010E949B0C8C2FCF91FF90EF905D
:1002B000DF90CF900C940411CF91FF90EF90DF90DE
:1002C000CF9008950F931F938B019C0183E0369587
:1002D0002795179507958A95D1F702551D4F462FFB
:1002E000477021E030E0F90102C0EE0FFF1F4A9590
:1002F000E2F7AF01F80120812423CB0101962111FF
:1003000002C090E080E01F910F9108950F931F931A
:100310008B019C0183E036952795179507958A9563
:10032000D1F7677081E090E001C0880F6A95EAF725
:10033000F801E255FD4F2081452B31F48095822351
:1003400080831F910F910895822BFACF2F923F92B5
:100350004F925F926F927F928F929F92AF92BF92D5
:10036000CF92DF92EF92FF920F931F93CF93DF9381
:10037000D62EC72E782E692E49015A01280161E038
:100380008D2D0E943E12CD2DDC2D8E010F5F1F4F53
:10039000A8016D2D7C2D872D962DB8DF20E030E053
:1003A000A901C201B7010E941F0E181664F4C20110
:1003B000B7010E94A00C2B01C501B4010E94A00C42
:1003C000A201CE0123D0C801DF91CF911F910F91DF
:1003D000FF90EF90DF90CF90BF90AF909F908F9065
:1003E0007F906F905F904F903F902F90089588235B
:1003F00041F08150682F70E090E080E050E040E0F4
:1004000085CF0895862FB9010C9404119C01FC013D
:10041000EC51FF4FE491E150E231E0F4F0E0882745
:10042000EB5EFD4F8F4F0C94501627022E023102C7
:1004300048025D022A0272027E0282029902AE0224
:10044000C302DA02EF022A0204031B03300384B55D
:10045000806884BD60E0822F0C947A1284B580623B
:10046000F8CF809180008C7F8260809380008091A3
:100470008100807E8061682B6093810050938700AB
:100480004093860080918000806880938000E2CF56
:10049000809180008C7F82608093800080918100B9
:1004A000807E8061682B6093810050938700409329
:1004B0008600809180008062E8CF809180008C7FF0
:1004C00082608093800080918100807E8061682BB3
:1004D0006093810050938700409386008091800054
:1004E0008860D3CF8091B00080688093B000809105
:1004F000B100887F682B6093B100ACCF8091B000D1
:100500008062F3CF809190008C7F82608093900016
:1005100080919100807E8061682B60939100509360
:10052000970040939600809190008068809390009F
:1005300091CF809190008C7F826080939000809119
:100540009100807E8061682B6093910050939700AA
:1005500040939600809190008062E8CF8091900057
:100560008C7F82608093900080919100807E80617A
:10057000682B609391005093970040939600809170
:1005800090008860D3CF8091A0008C7F82608093A0
:10059000A0008091A100807E8061682B6093A10003
:1005A0005093A7004093A6008091A000806880939C
:1005B000A00050CF8091A0008C7F82608093A0002B
:1005C0008091A100807E8061682B6093A100509390
:1005D000A7004093A6008091A0008062E8CF8091A0
:1005E000A0008C7F82608093A0008091A100807E1B
:1005F0008061682B6093A1005093A7004093A600F0
:100600008091A0008860D3CF809120018C7F826090
:100610008093200180912101807E8061682B60930E
:100620002101509327014093260180912001806889
:10063000809320010FCF809120018C7F8260809376
:10064000200180912101807E8061682B60932101CF
:100650005093270140932601809120018062E8CFCA
:10066000809120018C7F8260809320018091210104
:10067000807E8061682B6093210150932701409315
:100680002601809120018860D3CF9CB1892F807290
:1006900094FF16C0811116C08091BB029091BC02DC
:1006A000A091BD02B091BE020196A11DB11D809323
:1006B000BB029093BC02A093BD02B093BE0208950A
:1006C0008111EACF8091BB029091BC02A091BD0242
:1006D000B091BE020197A109B109E9CF99B1892F63
:1006E000847093FF16C08823B1F08091C902909165
:1006F000CA02A091CB02B091CC020196A11DB11DFE
:100700008093C9029093CA02A093CB02B093CC020B
:100710000895882351F38091C9029091CA02A09153
:10072000CB02B091CC020197A109B109E9CF8CB1FC
:1007300090E09C01220F232F221F330B86FF16C04F
:100740008091D7029091D802A091D902B091DA029B
:10075000232BB9F40196A11DB11D8093D70290936C
:10076000D802A093D902B093DA0208958091D702FB
:100770009091D802A091D902B091DA0221303105CE
:1007800049F30197A109B109E8CF9CB1892F807184
:1007900095FF16C08823B1F08091BB029091BC02F6
:1007A000A091BD02B091BE020196A11DB11D809322
:1007B000BB029093BC02A093BD02B093BE02089509
:1007C000882351F38091BB029091BC02A091BD029D
:1007D000B091BE020197A109B109E9CF99B1892F62
:1007E000887092FF16C0811116C08091C902909145
:1007F000CA02A091CB02B091CC020196A11DB11DFD
:100800008093C9029093CA02A093CB02B093CC020A
:1008100008958111EACF8091C9029091CA02A091F6
:10082000CB02B091CC020197A109B109E9CF8CB1FB
:1008300090E086FB222720F930E0880F892F881F5F
:10084000990B0197B1F48091D7029091D802A091B1
:10085000D902B091DA02232BB1F00196A11DB11D8E
:100860008093D7029093D802A093D902B093DA0272
:1008700008958091D7029091D802A091D902B091A9
:10088000DA02232B51F30197A109B109E9CF1F9295
:100890000F920FB60F9211242F933F934F935F93B4
:1008A0008F939F93AF93BF9383B121E030E0982F54
:1008B000907285FD02C030E020E080744091FB0220
:1008C0005091FC024217530709F062C021E030E06A
:1008D000811102C030E020E03093FA022093F90247
:1008E000882309F1911121C08091F3029091F402C3
:1008F000A091F502B091F6020196A11DB11D809361
:10090000F3029093F402A093F502B093F602809163
:10091000F3029091F402A091F502B091F6020196D3
:10092000A11DB11D20C09111DFCF8091F3029091E4
:10093000F402A091F502B091F6020197A109B10964
:100940008093F3029093F402A093F502B093F60221
:100950008091F3029091F402A091F502B091F60219
:100960000197A109B1098093F3029093F402A09337
:10097000F502B093F602BF91AF919F918F915F9175
:100980004F913F912F910F900FBE0F901F90189590
:100990003093FC022093FB02992371F0882371F0BD
:1009A0008091F3029091F402A091F502B091F602C9
:1009B0000196A11DB11DC4CF882391F38091F3024C
:1009C0009091F402A091F502B091F6020197A1096D
:1009D000B10995CF1F920F920FB60F9211248F93EA
:1009E0009F93AF93BF938091060181709091030113
:1009F00090FF1EC081111EC08091E5029091E60219
:100A0000A091E702B091E8020196A11DB11D80936B
:100A1000E5029093E602A093E702B093E802BF914B
:100A2000AF919F918F910F900FBE0F901F901895CF
:100A30008111E2CF8091E5029091E602A091E70258
:100A4000B091E8020197A109B109E1CF1F920F927D
:100A50000FB60F9211248F939F93AF93BF93809102
:100A6000030181709091060190FF1EC08823F1F070
:100A70008091E5029091E602A091E702B091E80230
:100A80000196A11DB11D8093E5029093E602A0930B
:100A9000E702B093E802BF91AF919F918F910F90C1
:100AA0000FBE0F901F901895882311F38091E502D7
:100AB0009091E602A091E702B091E8020197A109A6
:100AC000B109E1CF0F931F93CF93DF938C018EE099
:100AD000809FE001819FD00D1124C954DD4F79839F
:100AE00068835B834A838881998160E00E943E121B
:100AF0008A819B8160E00E943E128881998161E039
:100B00000E947A128A819B8161E00E947A120230EF
:100B1000110509F487C064F40115110501F10130D4
:100B2000110509F450C0DF91CF911F910F910895E5
:100B30000330110509F4A5C004301105A1F7809117
:100B4000680081608093680080916B008062809370
:100B50006B0080916B00806480936B00E4CF809188
:100B6000B7029091B80202978431910530F58C5804
:100B70009D4FFC018081082E000C990B41E050E054
:100B800065E473E00E94870E8091B9029091BA02E9
:100B9000029784319105A0F48C589D4FFC0180810F
:100BA000082E000C990B41E050E065EC73E0DF91FA
:100BB000CF911F910F910C94870E8FEF9FEFDECF97
:100BC0008FEF9FEFF0CF8091C5029091C602029700
:100BD0008431910508F58C589D4FFC018081082EC9
:100BE000000C990B41E050E06EEE73E00E94870E1E
:100BF0008091C7029091C80202978431910578F4E0
:100C00008C589D4FFC018081082E000C990B41E00F
:100C100050E06EE673E0CBCF8FEF9FEFE3CF8FEF27
:100C20009FEFF5CF8091D3029091D4020297843147
:100C3000910508F58C589D4FFC018081082E000C11
:100C4000990B41E050E067E973E00E94870E8091C4
:100C5000D5029091D60202978431910578F48C5890
:100C60009D4FFC018081082E000C990B41E050E063
:100C700067E174E09CCF8FEF9FEFE3CF8FEF9FEFA3
:100C8000F5CF80916800846080936800809168004F
:100C900082608093680080916D00816080936D0018
:100CA00080916C00826080936C003DCF2EE0269F87
:100CB000F001279FF00D1124E954FD4F64817581E7
:100CC0008681978108952F923F924F925F926F9203
:100CD0007F928F929F92AF92BF92CF92DF92EF92CC
:100CE000FF920F931F93CF93DF9300D000D000D0DB
:100CF0001F921F92CDB7DEB760E070E0CB01D6DF68
:100D00004DD6209130023091310240913202509103
:100D1000330299D769837A838B839C83209137062A
:100D2000309138064091390650913A0633D52091DA
:100D3000000230910102409102025091030283D7D8
:100D40009B01AC01609133067091340680913506A9
:100D5000909136061FD52B013C012091080230915D
:100D6000090240910A0250910B026DD720912F0683
:100D70003091300640913106509132060CD5F62E56
:100D80007B878987E92EE0918F03F0919003808122
:100D90009181A281B3818D839E83AF83B8879C01AB
:100DA000AD0160913C0270913D0280913E029091B4
:100DB0003F0245D718160CF0DDC18090400290909C
:100DC0004102A0904202B09043021091340200917F
:100DD000350230903602209037022F2D3B85498511
:100DE0005E2D612F702F832D922D39D587FD17C071
:100DF000109138020091390230903A0220903B0263
:100E00002F2D3B8549855E2D612F702F832D922DCF
:100E100016D7181624F01F2D0B8539842E2C2091FF
:100E2000140230911502409116025091170260E0B1
:100E300070E08FE793E417D56B017C01A501940165
:100E4000612F702F832D922DA6D49B01AC01C70179
:100E5000B601F9D6DED56B017C01CAD3811193C1ED
:100E6000C701B60182D381118EC120E030E040E895
:100E700057E4C701B601E7D56B017C0120E030E003
:100E8000A901EDD487FF82C1C701B601905858D59A
:100E9000AA27BB27A61BB70BBA87A98720911402E4
:100EA0003091150240911602509117026091100284
:100EB000709111028091120290911302D4D420E01B
:100EC00030E04FE753E4BFD66B017C0169857A853A
:100ED00077FF03C0719561957109072E000C880B8F
:100EE000990B5CD59B01AC01C701B60154D44B01F1
:100EF0005C01C0904C02D0904D02E0904E02F09008
:100F00004F029B01AC01B601C701A9D487FD11C0F6
:100F1000C0905002D0905102E0905202F0905302E3
:100F20009401A501B601C7018AD6181614F0640110
:100F300075019601A7016091480270914902809164
:100F40004A0290914B0226D46B017C01E894F7F899
:100F500067E070E080E090E0B5D990932806809338
:100F600027068091600290916102E985FA85E81771
:100F7000F9070CF011C1509148024091490230919B
:100F80004A0220914B02652F742F832F922F41D557
:100F90004B015C012DD3811104C1C501B401E5D21F
:100FA0008111FFC020E030E040E853E4C501B40106
:100FB0004AD54B015C0120E030E0A90150D487FF05
:100FC000F3C0C501B4019058BBD4619570E090E0C6
:100FD00080E0E4D4AB01BC01809127069091280603
:100FE0003AD966E070E080E090E06CD990932006FA
:100FF00080931F06809162029091630229853A8551
:101000002817390744F0C0904802D0904902E09078
:101010004A02F0904B02C701B601FBD46B017C0180
:10102000E7D28111C5C0C701B6019FD28111C0C0EE
:1010300020E030E040E853E4C701B60104D56B017D
:101040007C0120E030E0A9010AD487FFB4C0C701C9
:10105000B601905875D4619570E090E080E09ED420
:10106000AB01BC0180911F0690912006F4D820911D
:101070000402309105024091060250910702C3011B
:10108000B201E1D56B017C012D813E814F815885F4
:1010900060915402709155028091560290915702CE
:1010A000CED518160CF08BC0809158029091590241
:1010B000A0915A02B0915B0280933B0690933C064C
:1010C000A0933D06B0933E0620911802309119027C
:1010D00040911A0250911B02C701B601B4D520916C
:1010E0002F0630913006409131065091320653D38D
:1010F00060932F06709330068093310690933206EA
:1011000020913B0630913C0640913D0650913E06B1
:10111000609120027091210280912202909123021D
:1011200092D5209133063091340640913506509186
:10113000360631D36B017C01C0923306D09234065F
:10114000E0923506F09236068090280290902902AF
:10115000A0902A02B0902B02A501940170D587FDC2
:1011600037C08092330690923406A0923506B09232
:1011700036063EC08090440290904502A090460200
:10118000B090470222CEC12CD12C7601C701B60106
:10119000D7D37A87698782CE5C2D4D2D3E2D2F2D9A
:1011A000F2CE812C912C5401C501B401C9D30ECFCC
:1011B000C12CD12C7601C701B601C2D34DCF80918D
:1011C0005C0290915D02A0915E02B0915F0274CFCB
:1011D00080902C0290902D02A0902E02B0902F02B1
:1011E000A5019401C701B6013AD318160CF0B9CF86
:1011F00089819A81AB81BC818093370690933806B0
:10120000A0933906B0933A066091810370918203EE
:1012100080918303909184036F5F7F4F8F4F9F4F27
:10122000609381037093820380938303909384037C
:10123000A0918F03B0919003BA83A983ADD39B0192
:10124000AC01609185037091860380918703909132
:101250008803F9D4E981FA8160837183828393835F
:101260008091890390918A03A0918B03B0918C03A4
:101270000196A11DB11D8093890390938A03A093C9
:101280008B03B0938C032B960FB6F894DEBF0FBE82
:10129000CDBFDF91CF911F910F91FF90EF90DF9025
:1012A000CF90BF90AF909F908F907F906F905F9006
:1012B0004F903F902F9008958F929F92AF92BF9240
:1012C000DF92EF92FF920F931F93CF93DF9384E00F
:1012D00090E014D1EDEFF2E08DE893E09583848304
:1012E000CFE8D3E0D7AFC6AF05E813E0138B028B8E
:1012F000F0936603E0936503F383E28321E030E03B
:10130000DC012D933C9388E892E09187808781E906
:1013100093E0998388834FE852EC65EF7CE3F80112
:101320004083518362837383C9E1D6E0188A812C9C
:10133000912C54018394898A9A8AAB8ABC8A43E0AF
:1013400050E062E070E090E080E0BCDBDD24D3940C
:10135000DD8A18861D8689869A86AB86BC86E12C36
:10136000F12C8701A801970167E070E080E090E030
:101370000E94A6019F878E87DD8618821D82898242
:101380009A82AB82BC82A801970166E070E080E09F
:1013900090E00E94A6019F838E83DD82E0E0F2E070
:1013A000848D958DA68DB78D8E8B9F8BA88FB98FD1
:1013B00084A195A1A6A1B7A18A8F9B8FAC8FBD8F69
:1013C00084859585A685B7858E8F9F8FA8A3B9A3A1
:1013D000DF91CF911F910F91FF90EF90DF90BF9021
:1013E000AF909F908F90089580912906811103C03E
:1013F00081E0809329068091210681112EC081E031
:10140000809321068091220690912306A0912406C4
:10141000B09125060197A105B105F9F48091260642
:101420008823D9F067E070E080E090E00E946201DC
:10143000909328068093270640E050E0BA010E946E
:101440002B0167E070E080E090E00E9462019093E1
:101450002806809327060E94F701809119068111C2
:101460002EC081E08093190680911A0690911B0688
:10147000A0911C06B0911D060197A105B105F9F4D4
:1014800080911E068823D9F066E070E080E090E04D
:101490000E9462019093200680931F0640E050E076
:1014A000BA010E942B0166E070E080E090E00E94AB
:1014B00062019093200680931F060C94F701089513
:1014C00060E070E080E89FE7089560E070E080E809
:1014D0009FE7089560E070E080E89FEF089560E086
:1014E00070E080E89FEF089560E070E080EC9FEF8F
:1014F000089560E070E080EC9FEF0895F5DF609361
:101500004B0670934C0680934D0690934E06F1DF88
:1015100060933F0670934006809341069093420685
:10152000CFDF6093470670934806809349069093F7
:101530004A06CBDF609343067093440680934506CA
:1015400090934606C7DF60934F06709350068093D2
:10155000510690935206C3DF60935306709354066E
:1015600080935506909356060895CF92DF92EF929E
:10157000FF92CF936B017C01AC019B016091470608
:10158000709148068091490690914A0668D1C1E061
:10159000882369F0A701960160914F06709150066B
:1015A00080915106909152065AD18111C0E08C2F42
:1015B000CF91FF90EF90DF90CF9008950F931F93FE
:1015C0008B019C010027112720783F770115110519
:1015D00020483F4749F4AB01BC016F77772781E092
:1015E000452B462B472B09F480E01F910F9108955E
:1015F000E5CF40E052EC61E070E090E080E006D0A2
:1016000061E08DE03BD760E08DE074C781309105EB
:1016100079F01CF4892B39F008958230910561F03E
:10162000039771F0089526E085EA93E00C94711316
:1016300026E082E494E0FACF26E08FED94E0F6CF46
:1016400026E08CE795E0F2CF1F920F920FB60F9233
:1016500011240BB60F922F933F934F935F936F9389
:101660007F938F939F93AF93BF93EF93FF938DEAF5
:1016700098EF909325018093240180919A03909193
:101680009B03019719F461E08DE034D734D0FF91CA
:10169000EF91BF91AF919F918F917F916F915F91EA
:1016A0004F913F912F910F900BBE0F900FBE0F9057
:1016B0001F9018958DEA98EF90932501809324014F
:1016C000A3E7B0E08C918E7F8C93E0E2F1E0808123
:1016D0008C7F8083E1E2F1E08081877E808380815E
:1016E0008460808380818C7F80838C9181608C93E7
:1016F000089581E008958091990391E0980F909367
:101700009903882349F021E030E030939B03209334
:101710009A038093990308957894D5DAF894809188
:1017200099038150F6CFCF93DF9310925806109211
:10173000570608D55EDFC0919A02D0919B021982AC
:101740001882BADDF894B6DF81E028813981232B35
:1017500009F080E08093570678947894809157063A
:10176000811107C041DEF89490E080E0DF91CF91D5
:10177000089581E028813981232B09F480E080934A
:1017800058069091580681E0911180E080935706A9
:10179000B0DFE4CF5058BB27AA270ED0FFC1F0D14D
:1017A00030F0F5D120F031F49F3F11F41EF4E5C183
:1017B0000EF4E095E7FBB2C1E92F01D280F3BA172E
:1017C000620773078407950718F071F49EF530C21D
:1017D0000EF4E0950B2EBA2FA02D0B01B90190014C
:1017E0000C01CA01A0011124FF27591B99F0593F90
:1017F00050F4503E68F11A16F040A22F232F342FD8
:101800004427585FF3CF469537952795A795F04025
:101810005395C9F77EF41F16BA0B620B730B840B3A
:10182000BAF09150A1F0FF0FBB1F661F771F881FF2
:10183000C2F70EC0BA0F621F731F841F48F487954A
:1018400077956795B795F7959E3F08F0B3CF939539
:10185000880F08F09927EE0F9795879508953AD14C
:1018600008F481E008950CD099C191D140F088D15D
:1018700030F021F45F3F19F051C15111DAC17DC13F
:101880009ED198F39923C9F35523B1F3951B550BBA
:10189000BB27AA2762177307840738F09F5F5F4F43
:1018A000220F331F441FAA1FA9F333D00E2E3AF084
:1018B000E0E830D091505040E695001CCAF729D09E
:1018C000FE2F27D0660F771F881FBB1F26173707ED
:1018D0004807AB07B0E809F0BB0B802DBF01FF271D
:1018E00093585F4F2AF09E3F510568F017C1A1C180
:1018F0005F3FECF3983EDCF3869577956795B79557
:10190000F7959F5FC9F7880F911D9695879597F971
:101910000895E1E0660F771F881FBB1F62177307EA
:101920008407BA0720F0621B730B840BBA0BEE1FFF
:1019300088F7E095089504D06894B1117AC10895AC
:1019400046D188F09F5790F0B92F9927B751A0F052
:10195000D1F0660F771F881F991F1AF0BA95C9F743
:1019600012C0B13081F064D1B1E0089561C1672F38
:10197000782F8827B85F39F0B93FCCF386957795F3
:101980006795B395D9F73EF49095809570956195DC
:101990007F4F8F4F9F4F0895E89409C097FB3EF407
:1019A00090958095709561957F4F8F4F9F4F9923AC
:1019B000A9F0F92F96E9BB279395F695879577952A
:1019C0006795B795F111F8CFFAF4BB0F11F460FFEA
:1019D0001BC06F5F7F4F8F4F9F4F16C0882311F042
:1019E00096E911C0772321F09EE8872F762F05C056
:1019F000662371F096E8862F70E060E02AF09A95F1
:101A0000660F771F881FDAF7880F9695879597F9E5
:101A10000895F7D080F09F3740F491110EF009C17E
:101A200060E070E080E89FEB089526F41B16611DCE
:101A3000711D811D79C093C0A3D018F011F0A7D0FB
:101A400038F49BC0F6C0E92FBAD0B0F35523C9F3E0
:101A5000E7FB6217730784079507A8F199F3E92F4D
:101A6000FF2788232AF03197660F771F881FDAF740
:101A7000952F5527442332F091505040220F331FA9
:101A8000441FD2F7BB27E91BF50B621B730B840BBA
:101A9000B109C1F222F4620F731F841FB11D319787
:101AA0002AF0660F771F881FBB1FEFCF9150504061
:101AB0005AF041F0882332F0660F771F881F91504B
:101AC0005040C1F793954BC08695779567959F5F7A
:101AD000D9F7F8CF990F0008550FAA0BE0E8FEEFF1
:101AE00016161706E807F907C0F012161306E407E2
:101AF000F50798F0621B730B840B950B39F40A26DB
:101B000061F0232B242B252B21F408950A2609F4B8
:101B1000A140A6958FEF811D811D089597F99F67BC
:101B200080E870E060E00895882371F4772321F065
:101B30009850872B762F07C0662311F499270DC084
:101B40009051862B70E060E02AF09A95660F771F1F
:101B5000881FDAF7880F9695879597F908959F3F24
:101B600031F0915020F4879577956795B795880F58
:101B7000911D9695879597F908959FEF80EC0895AC
:101B800000240A941616170618060906089500245C
:101B90000A9412161306140605060895092E0394D6
:101BA000000C11F4882352F0BB0F40F4BF2B11F44A
:101BB00060FF04C06F5F7F4F8F4F9F4F089557FDA9
:101BC0009058440F551F59F05F3F71F04795880FAB
:101BD00097FB991F61F09F3F79F087950895121642
:101BE00013061406551FF2CF4695F1DF08C01616EE
:101BF00017061806991FF1CF86957105610508949F
:101C00000895E5DFA0F0BEE7B91788F4BB279F3839
:101C100060F41616B11D672F782F8827985FF7CFCD
:101C2000869577956795B11D93959639C8F3089574
:101C3000E894BB2766277727CB0197F908954ADFF9
:101C400008F48FEF08950BD0A9CF9ADF28F09FDF1B
:101C500018F0952309F062CF90CF1124EACFAFDFBF
:101C6000A0F3959FD1F3950F50E0551F629FF001AF
:101C7000729FBB27F00DB11D639FAA27F00DB11D08
:101C8000AA1F649F6627B00DA11D661F829F222791
:101C9000B00DA11D621F739FB00DA11D621F839F18
:101CA000A00D611D221F749F3327A00D611D231FEE
:101CB000849F600D211D822F762F6A2F11249F573C
:101CC00050408AF0E1F088234AF0EE0FFF1FBB1F5F
:101CD000661F771F881F91505040A9F79E3F5105FE
:101CE00070F01CCFA6CF5F3FECF3983EDCF38695F7
:101CF00077956795B795F795E7959F5FC1F7FE2BA9
:101D0000880F911D9695879597F9089508958830C5
:101D100008F075C0E82FF0E0EE0FFF1FEC59FD4F03
:101D2000718360838150873008F03CC0E82FF0E079
:101D30008827E356F14F8F4FB3C7DA0EA40EAC0ECF
:101D4000B80EC50EE60EF30E809169008C7F482B0D
:101D500040936900E89A089580916900837F440F59
:101D6000551F440F551F482B40936900E99A089569
:101D7000809169008F7C74E0440F551F7A95E1F7DC
:101D8000482B40936900EA9A0895809169008F7307
:101D900066E0440F551F6A95E1F7482B40936900B0
:101DA000EB9A089580916A008C7F482B40936A00DB
:101DB000EC9A089580916A00837F440F551F440F69
:101DC000551F482B40936A00ED9A089580916A0050
:101DD0008F7C24E0440F551F2A95E1F7482B409350
:101DE0006A00EE9A089580916A008F7396E0440F1E
:101DF000551F9A95E1F7482B40936A00EF9A089592
:101E00001F920F920FB60F9211240BB60F922F93C1
:101E10003F934F935F936F937F938F939F93AF9372
:101E2000BF93EF93FF93E0916802F09169021995D7
:101E3000FF91EF91BF91AF919F918F917F916F91A2
:101E40005F914F913F912F910F900BBE0F900FBE5E
:101E50000F901F9018951F920F920FB60F9211249A
:101E60000BB60F922F933F934F935F936F937F9394
:101E70008F939F93AF93BF93EF93FF93E0916A0289
:101E8000F0916B021995FF91EF91BF91AF919F91E6
:101E90008F917F916F915F914F913F912F910F9013
:101EA0000BBE0F900FBE0F901F9018951F920F92B0
:101EB0000FB60F9211240BB60F922F933F934F93AF
:101EC0005F936F937F938F939F93AF93BF93EF93A2
:101ED000FF93E0916C02F0916D021995FF91EF91E3
:101EE000BF91AF919F918F917F916F915F914F9132
:101EF0003F912F910F900BBE0F900FBE0F901F9030
:101F000018951F920F920FB60F9211240BB60F92D5
:101F10002F933F934F935F936F937F938F939F93F1
:101F2000AF93BF93EF93FF93E0916E02F0916F0236
:101F30001995FF91EF91BF91AF919F918F917F91F3
:101F40006F915F914F913F912F910F900BBE0F902A
:101F50000FBE0F901F9018951F920F920FB60F9201
:101F600011240BB60F922F933F934F935F936F9370
:101F70007F938F939F93AF93BF93EF93FF93E091E2
:101F80006402F09165021995FF91EF91BF91AF91B5
:101F90009F918F917F916F915F914F913F912F9181
:101FA0000F900BBE0F900FBE0F901F9018951F92B1
:101FB0000F920FB60F9211240BB60F922F933F93EF
:101FC0004F935F936F937F938F939F93AF93BF9341
:101FD000EF93FF93E0916602F09167021995FF91EC
:101FE000EF91BF91AF919F918F917F916F915F9191
:101FF0004F913F912F910F900BBE0F900FBE0F90FE
:102000001F9018951F920F920FB60F9211240BB6C6
:102010000F922F933F934F935F936F937F938F9381
:102020009F93AF93BF93EF93FF93E0917002F09172
:1020300071021995FF91EF91BF91AF919F918F918F
:102040007F916F915F914F913F912F910F900BBEB8
:102050000F900FBE0F901F9018951F920F920FB602
:102060000F9211240BB60F922F933F934F935F93D0
:102070006F937F938F939F93AF93BF93EF93FF9350
:10208000E0917202F09173021995FF91EF91BF9167
:10209000AF919F918F917F916F915F914F913F9100
:1020A0002F910F900BBE0F900FBE0F901F901895A1
:1020B0001F920F920FB60F9211242F933F938F937D
:1020C0009F93AF93BF9380919D0390919E03A091A6
:1020D0009F03B091A00330919C0323E0230F2D3781
:1020E00058F50196A11DB11D20939C0380939D037B
:1020F00090939E03A0939F03B093A0038091A103AC
:102100009091A203A091A303B091A4030196A11DF5
:10211000B11D8093A1039093A203A093A303B09356
:10212000A403BF91AF919F918F913F912F910F90F9
:102130000FBE0F901F90189526E8230F0296A11D41
:10214000B11DD2CF789484B5826084BD84B581609E
:1021500084BD85B5826085BD85B5816085BDEEE6AF
:10216000F0E0808181608083E1E8F0E0108280818E
:1021700082608083808181608083E0E8F0E08081FC
:1021800081608083E1EBF0E0808184608083E0EB1C
:10219000F0E0808181608083E1E9F0E0808182600D
:1021A0008083808181608083E0E9F0E080818160CC
:1021B0008083E1EAF0E080818260808380818160B9
:1021C0008083E0EAF0E0808181608083E1E2F1E0F9
:1021D000808182608083808181608083E0E2F1E0A1
:1021E000808181608083EAE7F0E080818460808381
:1021F000808182608083808181608083808180682B
:1022000080831092C10008951F93CF93DF93182FFE
:10221000EB0161E033D1209731F460E0812FDF9151
:10222000CF911F9167C1CF3FD10511F461E0F6CF87
:10223000E12FF0E0EC51FF4FE491E150E23108F082
:10224000B2C0F0E08827E95DFE4E8F4F29C53911F5
:102250004111461150115A11D31164116C117411AE
:102260007E1188119211A111AB11D311B511BF11BB
:10227000C91184B5806884BDC7BDDF91CF911F911E
:10228000089584B5806284BDC8BDF7CF8091800079
:10229000806880938000D0938900C0938800EDCF40
:1022A00080918000806280938000D0938B00C093E7
:1022B0008A00E3CF80918000886080938000D09373
:1022C0008D00C0938C00D9CF8091B000806880933E
:1022D000B000C093B300D1CF8091B00080628093F2
:1022E000B000C093B400C9CF809190008068809303
:1022F0009000D0939900C0939800BFCF8091900038
:10230000806280939000D0939B00C0939A00B5CFD9
:1023100080919000886080939000D0939D00C0933E
:102320009C00ABCF8091A00080688093A00080913A
:10233000A0008F7B8093A000D093A900C093A80039
:102340009CCF8091A00080628093A000D093AB00CE
:10235000C093AA0092CF8091A00088608093A000D3
:10236000D093AD00C093AC0088CF809120018068ED
:1023700080932001D0932901C09328017ECF8091C2
:102380002001806280932001D0932B01C0932A0109
:1023900074CF80912001886080932001D0932D011B
:1023A000C0932C016ACFC038D1050CF03FCF35CF98
:1023B0008150823108F059C0E82FF0E08827ED51B4
:1023C000FE4E8F4F6DC403120712F511FB11FF1162
:1023D00035120A12101214121A121E122212281288
:1023E0002C123512301236123A12809180008F77FB
:1023F000809380000895809180008F7DF9CF809137
:102400008000877FF5CF84B58F7784BD089584B52C
:102410008F7DFBCF8091B0008F778093B0000895BF
:102420008091B0008F7DF9CF809190008F7780935D
:1024300090000895809190008F7DF9CF8091900059
:10244000877FF5CF8091A0008F778093A0000895BB
:102450008091A0008F7DF9CF8091A000877FF5CF7C
:10246000809120018F778093200108958091200131
:102470008F7DF9CF80912001877FF5CFCF93DF93B8
:1024800090E0FC01E65DFE4F249180599E4FFC01D7
:1024900084918823C9F090E0880F991FFC01E053D4
:1024A000FE4FA591B491FC01EA54FE4FC591D49121
:1024B00061110DC09FB7F8948C91209582238C9365
:1024C0008881282328839FBFDF91CF9108956230B0
:1024D00051F49FB7F8943C91822F809583238C937D
:1024E000E8812E2BEFCF8FB7F894EC912E2B2C9305
:1024F0008FBFEACF1F93CF93DF93282F30E0F901EE
:10250000EC51FF4F8491F901E65DFE4FD491F90142
:10251000E059FE4FC491CC23A1F0162F811148DF62
:10252000EC2FF0E0EE0FFF1FEA54FE4FA591B4919F
:102530008FB7F894EC91111108C0D095DE23DC938D
:102540008FBFDF91CF911F910895DE2BF8CFFC0153
:10255000918D228D892F90E0805C9F4F821B910985
:102560008F7399270895FC01918D828D981731F012
:10257000828DE80FF11D858D90E008958FEF9FEF1C
:102580000895FC01918D828D981761F0A28DAE0F98
:10259000BF2FB11D5D968C91928D9F5F9F73928F1F
:1025A00090E008958FEF9FEF0895FC01538D448DC7
:1025B000252F30E0842F90E0821B930B541710F0EE
:1025C000CF96089501970895FC01A48DA80FB92F07
:1025D000B11DA35ABF4F2C91848D90E001968F734B
:1025E0009927848FA689B7892C93A089B1898C916A
:1025F000837080648C93938D848D981306C00288B9
:10260000F389E02D80818F7D80830895CF93DF93C0
:10261000EC01888D8823B1F0AA89BB89E889F98902
:102620008C9185FD03C0808186FD0CC00FB607FC30
:10263000F7CF8C9185FFF2CF808185FFEDCFCE0162
:10264000C3DFEACFDF91CF910895EF92FF920F930E
:102650001F93CF93DF93EC0181E0888F9B8D8C8D4E
:1026600098131AC0E889F989808185FF15C09FB742
:10267000F894EE89FF896083E889F9898081837005
:10268000806480839FBF81E090E0DF91CF911F91B4
:102690000F91FF90EF900895F62E0B8D10E00F5FD5
:1026A0001F4F0F731127E02E8C8D8E110BC00FB6AC
:1026B00007FCFACFE889F989808185FFF5CFCE0143
:1026C00083DFF2CFEB8DEC0FFD2FF11DE35AFF4FAF
:1026D000F0829FB7F8940B8FEA89FB898081806232
:1026E000D0CFCF92DF92EF92FF921F93CF93DF93E1
:1026F000EC016A017B01122FE889F98982E080836D
:10270000C11481EED806E104F10499F060E079E0AB
:102710008DE390E0A7019601A1D221503109410932
:1027200051095695479537952795211580E138072A
:1027300090F0E889F989108260E874E88EE190E011
:10274000A70196018BD221503109410951095695B3
:10275000479537952795EC85FD853083EE85FF8578
:102760002083188EEC89FD891083EA89FB8980819A
:1027700080618083EA89FB89808188608083EA891F
:10278000FB89808180688083EA89FB8980818F7DD5
:102790008083DF91CF911F91FF90EF90DF90CF90DA
:1027A00008951F920F920FB60F9211240BB60F923D
:1027B0002F938F939F93EF93FF93E091B503F09145
:1027C000B6038081E091BB03F091BC0382FD1DC084
:1027D00090818091BE038F5F8F732091BF0382171A
:1027E00041F0E091BE03F0E0EB55FC4F958F8093F4
:1027F000BE03FF91EF919F918F912F910F900BBE90
:102800000F900FBE0F901F9018958081F2CF1F92EE
:102810000F920FB60F9211240BB60F922F933F9386
:102820004F935F936F937F938F939F93AF93BF93D8
:10283000EF93FF9385EA93E0C7DEFF91EF91BF919D
:10284000AF919F918F917F916F915F914F913F9148
:102850002F910F900BBE0F900FBE0F901F901895E9
:10286000E5EAF3E01382128288EE93E0A0E0B0E0A4
:1028700084839583A683B78380EA92E091838083E3
:1028800085EC90E09587848784EC90E09787868735
:1028900080EC90E0918B808B81EC90E0938B828B2D
:1028A00082EC90E0958B848B86EC90E0978B868B06
:1028B000118E128E138E148E08951F920F920FB6E2
:1028C0000F9211240BB60F922F938F939F93EF9338
:1028D000FF93E0915204F09153048081E0915804F9
:1028E000F091590482FD1DC0908180915B048F5F3F
:1028F0008F7320915C04821741F0E0915B04F0E05B
:10290000EE5BFB4F958F80935B04FF91EF919F915E
:102910008F912F910F900BBE0F900FBE0F901F90B5
:1029200018958081F2CF1F920F920FB60F9211244B
:102930000BB60F922F933F934F935F936F937F93B9
:102940008F939F93AF93BF93EF93FF9382E494E0B1
:102950003BDEFF91EF91BF91AF919F918F917F915E
:102960006F915F914F913F912F910F900BBE0F9000
:102970000FBE0F901F901895E2E4F4E013821282CC
:1029800088EE93E0A0E0B0E084839583A683B783CC
:1029900080EA92E0918380838DEC90E09587848734
:1029A0008CEC90E09787868788EC90E0918B808B09
:1029B00089EC90E0938B828B8AEC90E0958B848BF2
:1029C0008EEC90E0978B868B118E128E138E148E68
:1029D00008951F920F920FB60F9211240BB60F920B
:1029E0002F938F939F93EF93FF93E091EF04F091D8
:1029F000F0048081E091F504F091F60482FD1DC0A1
:102A000090818091F8048F5F8F732091F904821771
:102A100041F0E091F804F0E0E152FB4F958F809394
:102A2000F804FF91EF919F918F912F910F900BBE22
:102A30000F900FBE0F901F9018958081F2CF1F92BC
:102A40000F920FB60F9211240BB60F922F933F9354
:102A50004F935F936F937F938F939F93AF93BF93A6
:102A6000EF93FF938FED94E0AFDDFF91EF91BF9176
:102A7000AF919F918F917F916F915F914F913F9116
:102A80002F910F900BBE0F900FBE0F901F901895B7
:102A9000EFEDF4E01382128288EE93E0A0E0B0E064
:102AA00084839583A683B78380EA92E091838083B1
:102AB00085ED90E09587848784ED90E09787868701
:102AC00080ED90E0918B808B81ED90E0938B828BF9
:102AD00082ED90E0958B848B86ED90E0978B868BD2
:102AE000118E128E138E148E08951F920F920FB6B0
:102AF0000F9211240BB60F922F938F939F93EF9306
:102B0000FF93E0918C05F0918D058081E091920515
:102B1000F091930582FD1DC09081809195058F5F96
:102B20008F7320919605821741F0E0919505F0E0B2
:102B3000E458FA4F958F80939505FF91EF919F91FF
:102B40008F912F910F900BBE0F900FBE0F901F9083
:102B500018958081F2CF1F920F920FB60F92112419
:102B60000BB60F922F933F934F935F936F937F9387
:102B70008F939F93AF93BF93EF93FF938CE795E071
:102B800023DDFF91EF91BF91AF919F918F917F9145
:102B90006F915F914F913F912F910F900BBE0F90CE
:102BA0000FBE0F901F901895ECE7F5E0138212828C
:102BB00088EE93E0A0E0B0E084839583A683B7839A
:102BC00080EA92E09183808385E391E09587848712
:102BD00084E391E09787868780E391E0918B808BF7
:102BE00081E391E0938B828B82E391E0958B848BE0
:102BF00086E391E0978B868B118E128E138E148E46
:102C00000895AF92BF92CF92DF92EF92FF920F930F
:102C10001F93CF93DF936C017B018B01040F151F72
:102C2000EB015E01AE18BF08C017D10759F06991DA
:102C3000D601ED91FC910190F081E02DC60119952E
:102C4000892B79F7C501DF91CF911F910F91FF90EB
:102C5000EF90DF90CF90BF90AF900895A1E21A2E31
:102C6000AA1BBB1BFD010DC0AA1FBB1FEE1FFF1F30
:102C7000A217B307E407F50720F0A21BB30BE40B80
:102C8000F50B661F771F881F991F1A9469F76095C7
:102C90007095809590959B01AC01BD01CF01089581
:102CA000EE0FFF1F881F8BBF0790F691E02D199440
:042CB000F894FFCFC6
:102CB4007B1B9A3B11DA8A3F63C6903D00000000FB
:102CC400000000009A9999408FC2F53C0000000072
:102CD4008FC2F53C0000000000008C4200008CC252
:102CE400555505429A9999409A9999C00000A04077
:102CF400000000000000004000007F4300007F430C
:102D0400000000000000803F00000000000070C2CE
:102D140000000000860E860E860E860E860E860E37
:102D2400860E860E0001FFFF0607FFFFFFFFFFFF71
:102D3400FFFFFFFF05040302466978656453746569
:102D440070446973637265746500FD0200000000DD
:0E2D540025130116D5120613A712C112B312D1
:00000001FF
