:1000000011C100000C94B01B0C94DB1B0C94061C5B
:100010000C94311C0C945C1C0C94871C0C94B21C2A
:100020000C94DD1C4DC40000EEC4000028C5000087
:100030002AC1000028C1000026C1000024C1000020
:1000400022C1000020C100001EC100001CC1000030
:100050001AC1000018C1000016C100000C94081D50
:1000600012C100000C94B2200C94E8200CC10000D6
:100070000AC1000008C1000006C1000004C1000060
:1000800002C1000000C10000FEC00000FCC0000072
:100090000C943E210C947421F6C000000C94650B66
:1000A000F2C00000F0C00000EEC00000ECC0000094
:1000B000EAC00000E8C00000E6C00000E4C00000A4
:1000C000E2C00000E0C000000C9442170C94CA216A
:1000D0000C940022D8C000000C9456220C948C2260
:1000E000D2C00000084AD73B3BCE016E84BCBFFDA6
:1000F000C12F3D6C74319ABD56833DDA3D00C77FF8
:1001000011BED9E4BB4C3E916BAAAABE0000008090
:100110003F0000000A0B02090C0D0E080703040142
:1001200000000000000000000000000000000000CF
:10013000000000000000000000000000000012119C
:10014000100000000000000000000000000000009F
:10015000000000000000000001021020200808102C
:100160002040102040800201020108040201010227
:100170000408102040808040201008040201800400
:10018000020180402010080402010804020101025B
:10019000040810204080010204081020408005055A
:1001A0000505070508080808020202020A0A0808ED
:1001B000040404040101010101010101030303031B
:1001C00003030303040707070C0C0C0C0C0C0C0CAA
:1001D0000202020206060606060606060B0B0B0BBB
:1001E0000B0B0B0B00002200250028002B002E001B
:1001F0003100340002010000050108010B0100007C
:100200002100240027002A002D00300033000101C6
:100210000000040107010A01D308040F11219D21E8
:100220002922B52211241FBECFEFD1E2DEBFCDBF00
:1002300000E00CBF12E0A0E0B2E0ECEAF6E400E07F
:100240000BBF02C007900D92AE3DB107D9F727E072
:10025000AEEDB2E001C01D92AA3AB207E1F711E09B
:10026000C2E1D1E000E006C021970109802FFE0124
:100270000E943123CC30D10780E00807A9F70E9403
:10028000B2170C945423BCCECF92DF92EF92FF9220
:10029000CF93882351F16A017B01CFEFC80F20E093
:1002A00030E0A901CB01B6010E94B01887FF11C050
:1002B000C701B60190580E941F199B01AC016C2F19
:1002C00070E090E080E0CF91FF90EF90DF90CF90D2
:1002D000B2C0C701B6010E941A198C2FCF91FF90AE
:1002E000EF90DF90CF900C94E51DCF91FF90EF90B1
:1002F000DF90CF9008950F931F938B019C0183E0B3
:1003000036952795179507958A95D1F702521D4F77
:10031000462F477021E030E0F90102C0EE0FFF1FC9
:100320004A95E2F7AF01F80120812423CB01019621
:10033000211102C090E080E01F910F9108950F936A
:100340001F938B019C0183E03695279517950795A0
:100350008A95D1F7677081E090E001C0880F6A95B7
:10036000EAF7F801E252FD4F2081452B31F48095E8
:10037000822380831F910F910895822BFACF2F92B1
:100380003F924F925F926F927F928F929F92AF9225
:10039000BF92CF92DF92EF92FF920F931F93CF9372
:1003A000DF93D62EC72E782E692E49015A012801D7
:1003B00061E08D2D0E941F1FCD2DDC2D8E010F5F62
:1003C0001F4FA8016D2D7C2D872D962DB8DF20E0C5
:1003D00030E0A901C201B7010E94C31A181664F4E3
:1003E000C201B7010E941F192B01C501B4010E946F
:1003F0001F19A201CE0123D0C801DF91CF911F9117
:100400000F91FF90EF90DF90CF90BF90AF909F90B3
:100410008F907F906F905F904F903F902F900895B6
:10042000882341F08150682F70E090E080E050E038
:1004300040E085CF0895862FB9010C94E51D9C01FD
:10044000FC01EE5EFE4FE491E150E231E0F4F0E0B9
:100450008827E25DFD4F8F4F0C9431234002470205
:100460004A026102760243028B0297029B02B202A9
:10047000C702DC02F302080343021D0334034903ED
:1004800084B5806884BD60E0822F0C945B1F84B5C6
:100490008062F8CF809180008C7F826080938000A2
:1004A00080918100807E8061682B609381005093F1
:1004B0008700409386008091800080688093800050
:1004C000E2CF809180008C7F826080938000809159
:1004D0008100807E8061682B60938100509387004B
:1004E00040938600809180008062E8CF80918000F8
:1004F0008C7F82608093800080918100807E80610B
:10050000682B609381005093870040938600809110
:1005100080008860D3CF8091B00080688093B00065
:100520008091B100887F682B6093B100ACCF80913F
:10053000B0008062F3CF809190008C7F82608093C6
:10054000900080919100807E8061682B6093910083
:10055000509397004093960080919000806880931C
:10056000900091CF809190008C7F8260809390006A
:1005700080919100807E8061682B60939100509300
:10058000970040939600809190008062E8CF809120
:1005900090008C7F82608093900080919100807E9B
:1005A0008061682B60939100509397004093960070
:1005B000809190008860D3CF8091A0008C7F826072
:1005C0008093A0008091A100807E8061682B609361
:1005D000A1005093A7004093A6008091A0008068DE
:1005E0008093A00050CF8091A0008C7F8260809388
:1005F000A0008091A100807E8061682B6093A100A3
:100600005093A7004093A6008091A0008062E8CF9D
:100610008091A0008C7F82608093A0008091A100D7
:10062000807E8061682B6093A1005093A700409367
:10063000A6008091A0008860D3CF809120018C7F9C
:1006400082608093200180912101807E8061682BEF
:10065000609321015093270140932601809120014E
:100660008068809320010FCF809120018C7F826071
:100670008093200180912101807E8061682B6093AE
:10068000210150932701409326018091200180622F
:10069000E8CF809120018C7F82608093200180913F
:1006A0002101807E8061682B609321015093270196
:1006B00040932601809120018860D3CF9CB1892F7F
:1006C000807294FF16C0811116C08091EB02909148
:1006D000EC02A091ED02B091EE020196A11DB11DB8
:1006E0008093EB029093EC02A093ED02B093EE02A4
:1006F00008958111EACF8091EB029091EC02A091D4
:10070000ED02B091EE020197A109B109E9CF99B1CB
:10071000892F847093FF16C08823B1F08091F9026D
:100720009091FA02A091FB02B091FC020196A11DEA
:10073000B11D8093F9029093FA02A093FB02B0934B
:10074000FC020895882351F38091F9029091FA02F6
:10075000A091FB02B091FC020197A109B109E9CF78
:100760008CB190E09C01220F232F221F330B86FFB8
:1007700016C08091070390910803A0910903B091DE
:100780000A03232BB9F40196A11DB11D8093070321
:1007900090930803A0930903B0930A0308958091EE
:1007A000070390910803A0910903B0910A03213037
:1007B000310549F30197A109B109E8CF9CB1892F0F
:1007C000807195FF16C08823B1F08091EB02909163
:1007D000EC02A091ED02B091EE020196A11DB11DB7
:1007E0008093EB029093EC02A093ED02B093EE02A3
:1007F0000895882351F38091EB029091EC02A0912F
:10080000ED02B091EE020197A109B109E9CF99B1CA
:10081000892F887092FF16C0811116C08091F9024D
:100820009091FA02A091FB02B091FC020196A11DE9
:10083000B11D8093F9029093FA02A093FB02B0934A
:10084000FC0208958111EACF8091F9029091FA0299
:10085000A091FB02B091FC020197A109B109E9CF77
:100860008CB190E086FB222720F930E0880F892F99
:10087000881F990B0197B1F48091070390910803A9
:10088000A0910903B0910A03232BB1F00196A11D99
:10089000B11D8093070390930803A0930903B093BD
:1008A0000A0308958091070390910803A09109031A
:1008B000B0910A03232B51F30197A109B109E9CFA4
:1008C0001F920F920FB60F9211242F933F934F93C5
:1008D0005F938F939F93AF93BF9383B121E030E0F9
:1008E000982F907285FD02C030E020E08074409126
:1008F0002B0350912C034217530709F062C021E0EB
:1009000030E0811102C030E020E030932A032093D0
:100910002903882309F1911121C08091230390912B
:100920002403A0912503B09126030196A11DB11DBA
:100930008093230390932403A0932503B09326036D
:100940008091230390912403A0912503B091260365
:100950000196A11DB11D20C09111DFCF809123030D
:1009600090912403A0912503B09126030197A1093A
:10097000B1098093230390932403A0932503B0939C
:1009800026038091230390912403A0912503B09125
:1009900026030197A109B1098093230390932403AF
:1009A000A0932503B0932603BF91AF919F918F91A0
:1009B0005F914F913F912F910F900FBE0F901F901D
:1009C000189530932C0320932B03992371F08823DF
:1009D00071F08091230390912403A0912503B0919D
:1009E00026030196A11DB11DC4CF882391F38091E8
:1009F000230390912403A0912503B091260301972E
:100A0000A109B10995CF1F920F920FB60F92112431
:100A10008F939F93AF93BF938091060181709091C4
:100A2000030190FF1EC081111EC08091150390919B
:100A30001603A0911703B09118030196A11DB11DD3
:100A40008093150390931603A0931703B093180394
:100A5000BF91AF919F918F910F900FBE0F901F90FC
:100A600018958111E2CF8091150390911603A09102
:100A70001703B09118030197A109B109E1CF1F92A3
:100A80000F920FB60F9211248F939F93AF93BF9342
:100A90008091030181709091060190FF1EC0882310
:100AA000F1F08091150390911603A0911703B09176
:100AB00018030196A11DB11D809315039093160391
:100AC000A0931703B0931803BF91AF919F918F919B
:100AD0000F900FBE0F901F901895882311F38091EF
:100AE000150390911603A0911703B0911803019775
:100AF000A109B109E1CF0F931F93CF93DF938C012D
:100B00008EE0809FE001819FD00D1124C951DD4FFF
:100B1000798368835B834A838881998160E00E943E
:100B20001F1F8A819B8160E00E941F1F888199811D
:100B300061E00E945B1F8A819B8161E00E945B1FD4
:100B40000230110509F487C064F40115110501F1A3
:100B50000130110509F450C0DF91CF911F910F9121
:100B600008950330110509F4A5C004301105A1F75B
:100B70008091680081608093680080916B00806242
:100B800080936B0080916B00806480936B00E4CF56
:100B90008091E7029091E80202978431910530F547
:100BA0008E569D4FFC018081082E000C990B41E070
:100BB00050E06EE573E00E94371B8091E90290914E
:100BC000EA02029784319105A0F48E569D4FFC01F4
:100BD0008081082E000C990B41E050E06EED73E02F
:100BE000DF91CF911F910F910C94371B8FEF9FEFE7
:100BF000DECF8FEF9FEFF0CF8091F5029091F6025C
:100C000002978431910508F58E569D4FFC01808135
:100C1000082E000C990B41E050E067E074E00E9460
:100C2000371B8091F7029091F80202978431910569
:100C300078F48E569D4FFC018081082E000C990B94
:100C400041E050E067E873E0CBCF8FEF9FEFE3CF59
:100C50008FEF9FEFF5CF80910303909104030297EC
:100C60008431910508F58E569D4FFC018081082E38
:100C7000000C990B41E050E060EB73E00E94371BE1
:100C8000809105039091060302978431910578F4D1
:100C90008E569D4FFC018081082E000C990B41E07F
:100CA00050E060E374E09CCF8FEF9FEFE3CF8FEFD6
:100CB0009FEFF5CF809168008460809368008091F9
:100CC000680082608093680080916D0081608093ED
:100CD0006D0080916C00826080936C003DCF2EE0AF
:100CE000269FF001279FF00D1124E951FD4F6481EB
:100CF0007581868197810895833009F484C088F4D2
:100D0000813001F1823009F453C0633009F4EDC041
:100D100008F0DBC0613009F4DEC0623009F4E0C0E5
:100D20000895843009F483C0853079F7633009F47D
:100D3000B9C008F0A7C0613009F4AAC0623009F454
:100D4000ACC008956330D1F028F4613049F06230CE
:100D500071F00895653001F1C0F0663021F1089519
:100D600080918100887F81608093810008958091C7
:100D7000B100887F81608093B100089580919100D7
:100D8000887F81608093910008958091A100887F81
:100D900081608093A100089580912101887F816006
:100DA00080932101089585B5887F816085BD089570
:100DB0006330B1F028F4613049F0623061F0089599
:100DC0006530C1F090F06630D1F0089580918100D7
:100DD000887F8260C9CF8091B100887F8260CBCF4D
:100DE00080919100887F8260CDCF8091A100887F23
:100DF0008260CFCF80912101887F8260D1CF85B57D
:100E0000887F8260D3CF633009F46FC038F46130DB
:100E100009F461C0623009F463C00895653009F4D3
:100E20006EC008F467C0663009F46EC00895633080
:100E3000B1F028F4613049F0623061F00895653016
:100E4000C1F090F06630D1F0089580918100887FE4
:100E500084608ACF8091B100887F84608CCF80913C
:100E60009100887F84608ECF8091A100887F84600C
:100E700090CF80912101887F846092CF85B5887F53
:100E8000846094CF6530C1F090F06630D1F0089561
:100E900080918100887F856067CF8091B100887FD5
:100EA000856069CF80919100887F85606BCF80914C
:100EB000A100887F85606DCF80912101887F85604A
:100EC0006FCF85B5887F856071CF6530C1F090F0B8
:100ED0006630D1F0089580918100887F836044CF8F
:100EE0008091B100887F836046CF80919100887F98
:100EF000836048CF8091A100887F83604ACF809132
:100F00002101887F83604CCF85B5887F83604ECF79
:100F100090E080E008958091610390916203891BC5
:100F2000990B089590916203809161032FEF3FEF39
:100F3000981748F4E92FF0E0ED59FC4F208130E09C
:100F40009F5F90936203C9010895E09162038091CD
:100F50006103E81730F4F0E0ED59FC4F808190E038
:100F600008958FEF9FEF08950895CF93DF93EC01DD
:100F7000E0913903F0913A033097F1F090916203D8
:100F8000809161039817C0F090E0292F30E0261778
:100F9000370754F4DE01A20FB31F4C912D593C4F7B
:100FA000D9014C939F5FF1CF10926203609361036C
:100FB000CB01DF91CF911994DF91CF910895E0910A
:100FC0003B03F0913C03309729F010923F031092BD
:100FD0003E0319940895CF93DF931F92CDB7DEB7E8
:100FE000698320913D032223F9F020913E032032B2
:100FF00058F021E030E0FC013383228390E080E070
:101000000F90DF91CF91089580913F03E82FF0E09A
:10101000E05CFC4F998190838F5F80933F038093C6
:101020003E0381E090E0ECCF61E0CE010196F7D085
:10103000F8CFCF92DF92EF92FF920F931F93CF934F
:10104000DF937C01CB018A0120913D03222389F0AB
:10105000EB016B01C40ED51ECC15DD0561F0699165
:10106000D701ED91FC910190F081E02DC701199518
:10107000F3CF642FD4D0C801DF91CF911F910F918E
:10108000FF90EF90DF90CF9008951092620310923E
:10109000610310923F0310923E0396D08FED97E0CC
:1010A000EAD085EB97E0E2C081E080933D03609356
:1010B000600310923F0310923E0308950F93062F92
:1010C00021E040913E0360E473E080916003D5D15C
:1010D00010923F0310923E0310923D030F9108952A
:1010E0004F925F926F927F92AF92BF92CF92EF92A8
:1010F000FF920F931F93CF93DF935C01F62ED42FB3
:1011000028013901EE2009F1CFDFCE2DC43008F0DF
:10111000C3E0C150B8F028E0C29FC0011124A30170
:10112000920104C056954795379527958A95D2F731
:10113000B901D501ED91FC910190F081E02DC5013F
:101140001995E7CF60E0C501B9DF4D2FD13208F026
:1011500040E22C2D63E673E08F2DACD01092620339
:1011600080936103DF91CF911F910F91FF90EF90DA
:10117000CF90BF90AF907F906F905F904F90089509
:10118000CF92EF920F931F93C22EE12C00E010E05C
:101190009801A6DF1F910F91EF90CF90089521E065
:1011A000EFCF61E08BCFEDE2F3E01382128288EEA5
:1011B00093E0A0E0B0E084839583A683B7838AEAB6
:1011C00092E09183808308951092F60381E08093EA
:1011D000F4031092F30361E084E10E945B1F61E07D
:1011E00085E10E945B1FE9EBF0E080818E7F8083C8
:1011F00080818D7F808388E48093B80085E480932C
:10120000BC000895ECEBF0E080818A7B808360E095
:1012100084E10E945B1F60E085E10C945B1F2091DC
:10122000A503260F3327331F21323105ECF420911B
:10123000F603FC0190E080E0243069F082E008953C
:10124000A091A5032191AC0149555C4FA40FB52F86
:10125000B11D2C930196861798F38091A503680F12
:101260006093A50380E0089581E008959093EA03D8
:101270008093E90308959093EC038093EB03089522
:1012800085EC8093BC001092F6030895CF93DF9312
:1012900091E09093EE03882351F0C091B800D09173
:1012A000BA00B0DF91DFD093BA00C093B800DF91ED
:1012B000CF9108954F925F926F927F928F929F92FB
:1012C000AF92BF92CF92DF92EF92FF920F931F9354
:1012D000CF93DF93D82F162F072FC42FB22E413272
:1012E00008F0A2C00E945E1D6B017C018091F60394
:1012F000811176C081E08093F603B092F4039FEFF2
:10130000909383031092C8039C0F9093C70380931C
:10131000F5038091F503DD0FD82BD093F503809171
:10132000F303813009F082C01092F3030E945E1D26
:101330006B017C018091F5038093BB008091EF03EA
:101340009091F003A091F103B091F203892B8A2BC5
:101350008B2BA1F00E945E1D8090EF039090F00314
:10136000A090F103B090F2036C197D098E099F09DA
:1013700086169706A806B90608F453C08091BC00EB
:1013800083FDD8CF85EC8093BC000E945E1D6B016D
:101390007C018091F603813009F44AC08091C80332
:1013A0008C1710F4C091C803A9ECB3E0912FE12F82
:1013B000F02F8E2F891B8C1708F45CC08C2FDF91C7
:1013C000CF911F910F91FF90EF90DF90CF90BF9042
:1013D000AF909F908F907F906F905F904F90089507
:1013E0008091EF039091F003A091F103B091F2038B
:1013F000892B8A2B8B2B09F479CF0E945E1D40909C
:10140000EF035090F0036090F1037090F2036C19B9
:101410007D098E099F09461657066806790608F069
:1014200065CF8091ED0332DFC0E0C8CF85EEABCF52
:101430008091EF039091F003A091F103B091F2033A
:10144000892B8A2B8B2B09F4A4CF0E945E1D8090E0
:10145000EF039090F003A090F103B090F2036C19A9
:101460007D098E099F0986169706A806B90608F019
:1014700090CFD7CF8D9181939CCF4F925F926F92F7
:101480007F928F929F92AF92BF92EF92FF920F93B3
:101490001F93CF93DF93413208F0D8C0F22ED42FA0
:1014A000E72E162FC82F0E945E1D4B015C01809114
:1014B000F603811170C082E08093F6030093F40379
:1014C0008FEF809383031092C803D093C703912FAB
:1014D000A9ECB3E0E12FFE2D8E2F891B8D1708F4A8
:1014E0008EC01092F5038091F503CC0FC82BC093EA
:1014F000F5038091F303813009F084C01092F30367
:101500000E945E1D4B015C018091F5038093BB003E
:101510008091EF039091F003A091F103B091F20359
:10152000892B8A2B8B2BA1F00E945E1D0091EF036B
:101530001091F0032091F1033091F20368197909B9
:101540008A099B09061717072807390708F444C0BA
:101550008091BC0083FDD8CF85EC8093BC000E94B5
:101560005E1D4B015C01FF2029F08091F603823063
:1015700009F44AC0809183038F3F09F469C08091C8
:101580008303803209F466C080918303803309F4B9
:1015900063C084E025C08091EF039091F003A09197
:1015A000F103B091F203892B8A2B8B2B09F47FCFA7
:1015B0000E945E1D4090EF035090F0036090F10395
:1015C0007090F203681979098A099B094616570633
:1015D0006806790608F06BCF8091ED0357DE85E051
:1015E000DF91CF911F910F91FF90EF90BF90AF903F
:1015F0009F908F907F906F905F904F900895819112
:101600008D936ACF85EEA9CF8091EF039091F0037F
:10161000A091F103B091F203892B8A2B8B2B09F453
:10162000A2CF0E945E1D0091EF031091F003209164
:10163000F1033091F203681979098A099B090617A9
:1016400017072807390708F08ECFC6CF81E0C8CF2B
:1016500080E0C6CF82E0C4CF83E0C2CF85ED809327
:10166000BC008091EF039091F003A091F103B09141
:10167000F2030796A11DB11D23E0B695A795979596
:1016800087952A95D1F72091BC0024FD03C01092C4
:10169000F60308954091EF035091F0036091F10338
:1016A0007091F203452B462B472B69F30097A10558
:1016B000B10541F025E32A95F1F700000197A10952
:1016C000B109E1CF8091ED03E1CD1F920F920FB6EA
:1016D0000F9211240BB60F922F933F934F935F936A
:1016E0006F937F938F939F93AF93BF93EF93FF93EA
:1016F0008091B900887F803609F44CC008F03FC063
:10170000883209F4A8C028F5803109F49CC0C8F4D7
:10171000882309F4F8C0883009F495C0FF91EF914F
:10172000BF91AF919F918F917F916F915F914F91F9
:101730003F912F910F900BBE0F900FBE0F901F90F7
:101740001895883109F487C0803241F7809383036C
:1017500014C0803409F49CC040F48033B9F388335A
:10176000E9F6809383038CDDD9CF803509F484C0FA
:10177000883509F495C0883489F670DFCFCF883971
:1017800009F48CC038F5883729F050F4883611F008
:10179000803721F683E08093F6031092840357C0CC
:1017A000883809F47BC0803919F0803809F0B6CF49
:1017B00080918403803208F071C0E091840381E05D
:1017C0008E0F809384038091BB00F0E0EB57FC4FB9
:1017D00080833DC0803B39F0E0F4803A09F479C061
:1017E000883A09F09BCF84E08093F6031092A60319
:1017F0001092A503E091EB03F091EC031995809111
:10180000A50381110FC081E08093A5031092A70367
:1018100009C0803C09F475C0883C09F472C0883B5B
:1018200009F07CCFE091A60381E08E0F8093A603A0
:10183000F0E0E955FC4F80818093BB009091A603B6
:101840008091A50329C08091F5038093BB0085ECAE
:101850008093BC0063CF9091C8038091C703981711
:1018600058F5E091C80381E08E0F8093C803F0E043
:10187000E753FC4F8081E9CFE091C80381E08E0FF0
:101880008093C8038091BB00F0E0E753FC4F808356
:101890009091C8038091C7039817C8F285E8D8CF04
:1018A000E091C80381E08E0F8093C8038091BB0054
:1018B000F0E0E753FC4F80838091F40381115DCF0A
:1018C00081E08093F30384EA8093BC001092F603D6
:1018D00025CFD6DC80918403803230F4E0918403FC
:1018E000F0E0EB57FC4F10826091840370E0E091D0
:1018F000E903F091EA0385E893E0199510928403D7
:101900000DCF85ECE1CF1092830337CFFF920F9379
:101910001F93CF93DF93C62F042FF22E132F682F20
:101920008DE293E0C1DB6C2F8DE293E054DBCF2D91
:10193000D12F0C0F1D2F111DC017D10729F0699150
:101940008DE293E048DBF8CF8DE293E02ADC91E072
:10195000811190E0892FDF91CF911F910F91FF901E
:101960000895CF93DF931F92CDB7DEB749839E01D1
:101970002F5F3F4F41E0CADF0F90DF91CF91089575
:101980002F923F924F925F926F927F928F929F928F
:10199000AF92BF92CF92DF92EF92FF920F931F937D
:1019A000CF93DF9300D0CDB7DEB7E82E69834B83AA
:1019B00069010E94521D4B015C01F12C1A822B819E
:1019C000222E312C2801712C612C8B81F81608F005
:1019D00044C06E2D8DE293E067DB69818DE293E078
:1019E000FADA8DE293E0DDDB6E2D8DE293E05CDBD5
:1019F000A1014F1951094132510514F040E250E064
:101A00006E2D8DE293E0CBDB8DE293E084DA892BBF
:101A1000D9F00115110569F48DE293E083DAF6013E
:101A20009A81E90FF11D97FDFA9580839F5F9A8354
:101A3000EBCF0E94521D681979098A099B09641528
:101A400075058605970540F38DE293E0AADB8B814F
:101A5000813208F080E2F80EB8CF01151105C1F00F
:101A60000E94521D681979098A099B0930E020E01B
:101A7000601771078207930758F02A81822F220F7F
:101A8000990B2B812817190619F014F08FEF8A8310
:101A90008A810F900F900F90DF91CF911F910F913E
:101AA000FF90EF90DF90CF90BF90AF909F908F907E
:101AB0007F906F905F904F903F902F9008950F937D
:101AC0001F9389019A0141E05BDF1F910F910895F7
:101AD000EF92FF920F931F93CF93DF931F92CDB797
:101AE000DEB7182F062FE42EF22E2091000230913F
:101AF0000102AE014F5F5F4FE2DF81E090E001C085
:101B0000880FEA94EAF74981FF2069F0482B49835E
:101B1000602F812F26DF0F90DF91CF911F910F91C2
:101B2000FF90EF90089580954823F1CFDF92EF92D8
:101B3000FF920F931F93CF93DF931F92CDB7DEB722
:101B4000F82EE62E142FD22E2091000230910102A1
:101B5000AE014F5F5F4FB3DF882351F1812F8D19A5
:101B6000990BAC014F5F5F4F81E090E002C0880F9E
:101B7000991FDA94E2F70197042E01C0880F0A94A6
:101B8000EAF701C0000F4A95EAF7482F409599817E
:101B900049238023482B49836E2D8F2DE2DE0F9041
:101BA000DF91CF911F910F91FF90EF90DF900895FB
:101BB00080E0F5CF28E6FC01208308950F93062FDF
:101BC00023E042E06AE1FC018081B0DF0F910895DB
:101BD0000F93062F22E044E06BE1FC018081A6DF39
:101BE0000F9108950F93062F22E044E06CE1FC0171
:101BF00080819CDF0F9108950F931F93CF93DF9304
:101C0000EC0100910002109101029C012F5F3F4FF7
:101C100042E06BE38881B4DE89819A819827892725
:101C20009827DF91CF911F910F9108950F931F93E4
:101C3000CF93DF93EC0100910002109101029C010F
:101C40002F5F3F4F42E06DE388819ADE89819A8160
:101C5000982789279827DF91CF911F910F91089599
:101C60000F931F93CF93DF93EC010091000210912B
:101C700001029C012F5F3F4F42E06FE3888180DECD
:101C800089819A81982789279827DF91CF911F9181
:101C90000F9108950F931F93CF93DF93EC01009161
:101CA0000002109101029C012F5F3F4F42E063E46C
:101CB000888166DE89819A81982789279827DF9114
:101CC000CF911F910F9108950F931F93CF93DF939F
:101CD000EC0100910002109101029C012F5F3F4F27
:101CE00042E065E488814CDE89819A8198278927C2
:101CF0009827DF91CF911F910F9108950F931F9314
:101D0000CF93DF93EC0100910002109101029C013E
:101D10002F5F3F4F42E067E4888132DE89819A81FC
:101D2000982789279827DF91CF911F910F910895C8
:101D3000262F46E06BE6FC018081CACE0F93062F6A
:101D400023E042E06BE6FC018081F0DE0F91089514
:101D5000CF93DF93EC0161E0F1DF60E0CE0138DF8B
:101D600060E0CE013FDF60E0CE01DF91CF91E0CFB8
:101D70008DE293E08AD987EF93E0EADF20E045E047
:101D80006AE688E6A5DE21E041E067E388E6A0DEBA
:101D900020E046E06BE688E69BCECF93DF93EC0134
:101DA00087EF93E029DF9983888387EF93E03EDF15
:101DB0009B838A8387EF93E053DF9D838C83DF913E
:101DC000CF910895CF93C82F8DE293E05ED96C2F09
:101DD00087EF93E0F3DE87EF93E0CF91B9CFCF9316
:101DE000DF93EC0187EF93E055DF9983888387EFDA
:101DF00093E06ADF9B838A8387EF93E07FDF9D8395
:101E00008C83DF91CF91089587EF93E0D3CE8F92AB
:101E10009F92AF92BF92CF92DF92EF92FF92CF93B9
:101E2000DF936B017C0149015A01E4D7882399F0C3
:101E3000609190077091910780919207909193071C
:101E4000DF91CF91FF90EF90DF90CF90BF90AF9058
:101E50009F908F900895C501B401CCD78111E8CF30
:101E6000C701B6019ED78823D9F1C501B40199D71E
:101E70008823B1F120E030E0A901C701B6010E943A
:101E8000C31ACFEFDFEF181614F4C1E0D0E020E062
:101E900030E0A901C501B4010E94C31A6FEF7FEFC2
:101EA000181614F461E070E0072E000C880B990BF3
:101EB0000E944D196B017C01BE01DD0F880B990B4F
:101EC0000E944D19A7019601DF91CF91FF90EF90ED
:101ED000DF90CF90BF90AF909F908F900C945D1843
:101EE00020E030E0A901C501B4010E94B0188111C1
:101EF00016C020E030E0A901C701B6010E94C31A54
:101F0000181694F020E030E0A901C701B6010E9444
:101F1000B01887FD0EC060E070E0CB0191CFA50145
:101F20009401C701B601D0CF6BED7FE089EC9FE350
:101F300087CF6BED7FE089EC9FEB82CF2F923F92B2
:101F40004F925F926F927F928F929F92AF92BF92C9
:101F5000CF92DF92EF92FF92CF93DF93CDB7DEB7B0
:101F60002E970FB6F894DEBF0FBECDBFE091A00450
:101F7000F091A1042091260230912702409128027D
:101F80005091290260817181828193810E94C31ADC
:101F900018160CF099C481E080938F07CE0101964A
:101FA0001EDF69817A81072E000C880B990B0E9435
:101FB0004D1920912E0230912F0240913002509104
:101FC00031020E94E9179B01AC01809102029091BD
:101FD0000302A0910402B0910502BC01CD0190580A
:101FE0000E94CE1A4B015C01CE010196D6DE2091F3
:101FF0001A0230911B0240911C0250911D02C50132
:10200000B4010E94CE1A20917E0730917F07409143
:10201000800750918107DED720915E0230915F02E8
:1020200040916002509161020E94CE1A6F837887BE
:1020300089879A87C0905202D0905302E090540250
:10204000F09055022091800230918102AB81BC81D9
:102050000E9439230E944D1920E030E040E058E30F
:102060000E94CE1A209136023091370240913802F8
:1020700050913902AED72B013C0120917E02309164
:102080007F02AD81BE810E9439230E944D1920E05C
:1020900030E040E058E30E94CE1A209132023091A5
:1020A0003302409134025091350293D7A30192013B
:1020B000AEDE9B01AC01C701B6018CD72091560260
:1020C0003091570240915802509159020E94CE1A05
:1020D0002F81388549855A857DD76F837887898791
:1020E0009A8760E070E0CB010E946F060E944D1954
:1020F0002091060230910702409108025091090296
:102100000E94CE1A6B017C01209162023091630221
:1021100040916402509165020E94CE1A6B877C87C1
:102120008D879E8720910A0230910B0240910C020C
:1021300050910D026F81788589859A850E94CE1A0B
:102140002B013C0120910E0230910F0240911002B0
:1021500050911102C501B4010E94CE1A9B01AC013D
:10216000C301B20137D74B015C01209112023091BB
:1021700013024091140250911502C701B6010E944A
:10218000CE1A9B01AC01C501B40124D76B017C01BF
:1021900020918207309183074091840750918507F1
:1021A0006B857C858D859E8514D720911602309194
:1021B000170240911802509119020E94CE1A9B01F9
:1021C000AC01C701B60106D74B015C01C0906602A5
:1021D000D0906702E0906802F09069029B01AC0128
:1021E000B601C701BDD787FD12C0C0906A02D0906A
:1021F0006B02E0906C02F0906D029401A501B601B3
:10220000C7010E94C31A181614F06401750122EC6C
:1022100038EB42E35FE36F81788589859A859F7704
:102220009FD720E030E040E85FE387FD03C020E077
:1022300030E0A901B601C7010E94CE1A4B015C0132
:1022400020916E0230916F024091700250917102A4
:102250000E94CE1A0E9488196B017C01CBD5811196
:1022600053C0C701B6019DD581114EC020E030E0BA
:1022700040E857E4C701B6010E94A2196B017C0136
:1022800020E030E0A9016CD787FF41C0C701B6014B
:102290009058D5D766247724661A770AB30177FE5B
:1022A00004C06627772766197709072E000C880B6C
:1022B000990BF3D720911E0230911F02409120020A
:1022C0005091210287D66B017C01C0922A07D092DF
:1022D0002B07E0922C07F0922D0720903E023090C1
:1022E0003F024090400250904102A20191010E94A1
:1022F000C31A18168CF420922A0730922B074092AA
:102300002C0750922D0717C0C12CD12C7601C70184
:10231000B60195D73B01C2CF2090420230904302D4
:102320004090440250904502A2019101C701B601BC
:1023300017D787FDE0CF20912A0730912B074091D6
:102340002C0750912D0760913A0270913B028091C9
:102350003C0290913D023DD69F7760932A0770938F
:102360002B0780932C0790932D0767E070E080E0A7
:1023700090E00E947B0190934D0780934C078091E1
:10238000760290917702681679060CF4EBC06091A2
:102390002A0770912B0780912C0790912D07B8D7B1
:1023A0006B017C0141D58111E6C0C701B601D0D4D3
:1023B0008111E1C020E030E040E853E4C701B601FC
:1023C000C1D76B017C0120E030E0A901C9D687FFAD
:1023D000D5C0C701B601905832D7619570E090E042
:1023E00080E05BD7AB01BC0180914C0790914D0719
:1023F0000E94440166E070E080E090E00E947B0172
:1024000090934507809344078091780290917902D8
:102410006816790684F080913A0290913B02A0916F
:102420003C02B0913D0280932A0790932B07A09322
:102430002C07B0932D0760912A0770912B0780918C
:102440002C0790912D0764D76B017C01EDD481118D
:1024500099C0C701B6017CD4811194C020E030E05E
:1024600040E853E4C701B6016DD76B017C0120E061
:1024700030E0A90175D687FF88C0C701B601905822
:10248000DED6619570E090E080E007D7AB01BC013B
:1024900080914407909145070E9444012091720267
:1024A000309173024091740250917502C501B401DC
:1024B0000E94CE1A2DD76B017C019CD4811169C07A
:1024C000C701B6016ED4811164C020E030E040E85D
:1024D00057E4C701B60136D76B017C0120E030E03C
:1024E000A9013ED687FF58C0C701B6019058A7D6AC
:1024F000EE24FF24E61AF70AB701F7FE04C06627A8
:1025000077276E197F09072E000C880B990BC5D60B
:102510002091220230912302409124025091250201
:1025200059D54B015C0180922A0790922B07A0920B
:102530002C07B0922D0740904A0250904B026090B9
:102540004C0270904D02A30192010E94C31A18160A
:1025500044F540922A0750922B0760922C07709204
:102560002D072EC060913A0270913B0280913C028F
:1025700090913D0214CFC12CD12C7601C701B60138
:102580005ED62CCFC12CD12C7601C701B60157D60F
:1025900079CFC12CD12C7601C701B60150D67B0171
:1025A000ABCF40904E0250904F026090500270901E
:1025B0005102A3019201C501B401D2D587FDC9CF53
:1025C00020912A0730912B0740912C0750912D071D
:1025D00060914602709147028091480290914902B1
:1025E000F8D49F7760932A0770932B0780932C076A
:1025F00090932D0769E070E080E090E00E947B01FD
:1026000090933D0780933C0780917A0290917B02E2
:10261000E816F9060CF441C1609146027091470238
:10262000809148029091490273D64B015C01FCD322
:1026300081113CC1C501B4018BD3811137C120E0A8
:1026400030E040E853E4C501B4017CD64B015C01A5
:1026500020E030E0A90184D587FF2BC1C501B4017A
:102660009058EDD5619570E090E080E016D6AB0112
:10267000BC0180913C0790913D070E9444016AE0B3
:1026800070E080E090E00E947B019093350780939A
:10269000340780917C0290917D02E816F90684F45B
:1026A0008091460290914702A0914802B091490260
:1026B00080932A0790932B07A0932C07B0932D07A4
:1026C00060912A0770912B0780912C0790912D071C
:1026D0001FD66B017C01A8D38111EFC0C701B601E1
:1026E00037D38111EAC020E030E040E853E4C7016D
:1026F000B60128D66B017C0120E030E0A90130D57D
:1027000087FFDEC0C701B601905899D5619570E08A
:1027100090E080E0C2D5AB01BC018091340790917C
:1027200035070E94440180918F078823C1F08F8173
:102730009885A985BA8580937E0790937F07A0939B
:102740008007B09381078B859C85AD85BE8580937E
:10275000820790938307A0938407B0938507C09066
:102760008A04D0908B04E0908C04F0908D049FEF4D
:10277000C91AD90AE90AF90AC0928A04D0928B04CC
:10278000E0928C04F0928D04C114D104E104F104B0
:1027900099F480918E0490918F04A0919004B0914F
:1027A00091040196A11DB11D80938E0490938F0416
:1027B000A0939004B093910440909204509093049D
:1027C00060909404709095042090A0043090A1042F
:1027D00060918E0470918F04809190049091910487
:1027E0005AD5A3019201DAD620E030E040E85FE458
:1027F000D5D64B015C01C701B6014DD5A3019201AD
:10280000CDD69B01AC01C501B401E4D3D1016D93D8
:102810007D938D939C931397809196049091970448
:10282000A0919804B09199040196A11DB11D8093C7
:10283000960490939704A0939804B0939904892BDD
:102840008A2B8B2B99F480919A0490919B04A091F0
:102850009C04B0919D040196A11DB11D80939A0422
:1028600090939B04A0939C04B0939D042E960FB666
:10287000F894DEBF0FBECDBFDF91CF91FF90EF90F8
:10288000DF90CF90BF90AF909F908F907F906F9090
:102890005F904F903F902F90089560912A0770911C
:1028A0002B0780912C0790912D07BECE812C912C67
:1028B0005401C501B401C3D4D6CEC12CD12C7601AC
:1028C000C701B601BCD423CF10928F072CCF8F92B3
:1028D0009F92AF92BF92DF92EF92FF920F931F935E
:1028E000CF93DF9384E090E0FCD1E6E0F4E084EA6B
:1028F000DF011D928A95E9F78EE994E09583848340
:10290000C0EAD4E0D7AFC6AF02E914E0138B028B64
:10291000F0936F04E0936E04F383E28321E030E0F0
:10292000DC012D933C9388EB92E09187808782EACB
:1029300094E0998388834FE852EC65EF7CE3F801DB
:102940004083518362837383CEE2D7E082E6DE0167
:102950001D928A95E9F7DD24D394D0928607812CC5
:10296000912C5401839489AE9AAEABAEBCAE90E08C
:1029700080E028DADDAE1AAAD09287078BAA9CAA3B
:10298000ADAABEAAF5D9DFAA18A2D0928C0789A257
:102990009AA2ABA2BCA243E050E062E070E090E0FB
:1029A00080E00E947B05DDA2188ED0928E071D8EDE
:1029B000898E9A8EAB8EBC8EE12CF12C8701A801FA
:1029C000970167E070E080E090E00E94BF019F8F78
:1029D0008E8FDD8E188AD0928D071D8A898A9A8AF9
:1029E000AB8ABC8AA801970166E070E080E090E0C5
:1029F0000E94BF019F8B8E8BDD8A1886D09289073B
:102A00001D8689869A86AB86BC86A801970169E0F7
:102A100070E080E090E00E94BF019F878E87DD8696
:102A20001882D09288071D8289829A82AB82BC82EA
:102A3000A80197016AE070E080E090E00E94BF0189
:102A40009F838E83DD821CA6D0928B078DA69EA6C7
:102A5000AFA6B8AA64E081E00E947C06D9AA1EA2B3
:102A6000D0928A078FA298A6A9A6BAA662E081E0B2
:102A70000E947C06DBA680915A0290915B02A09195
:102A80005C02B0915D0280937E0790937F07A093D4
:102A90008007B093810780912A0290912B02A09128
:102AA0002C02B0912D028093820790938307A0930C
:102AB0008407B0938507DF91CF911F910F91FF900D
:102AC000EF90DF90BF90AF909F908F90089580918E
:102AD0006607811103C081E08093660780916007DB
:102AE000811103C081E08093600780914E078111BE
:102AF00003C081E080934E078091460781112EC06C
:102B000081E0809346078091470790914807A09104
:102B10004907B0914A070197A105B105F9F48091E1
:102B20004B078823D9F067E070E080E090E00E94D6
:102B30007B0190934D0780934C0740E050E0BA0131
:102B40000E94440167E070E080E090E00E947B0119
:102B500090934D0780934C070E94100280913E078E
:102B600081112EC081E080933E0780913F079091B4
:102B70004007A0914107B09142070197A105B10517
:102B8000F9F4809143078823D9F066E070E080E093
:102B900090E00E947B01909345078093440740E0BA
:102BA00050E0BA010E94440166E070E080E090E0ED
:102BB0000E947B0190934507809344070E94100276
:102BC0008091360781112EC081E080933607809175
:102BD000370790913807A0913907B0913A070197CC
:102BE000A105B105F9F480913B078823D9F069E08C
:102BF00070E080E090E00E947B0190933D0780931D
:102C00003C0740E050E0BA010E94440169E070E0F6
:102C100080E090E00E947B0190933D0780933C0709
:102C20000E94100280912E0781112EC081E08093B6
:102C30002E0780912F0790913007A0913107B09116
:102C400032070197A105B105F9F480913307882374
:102C5000D9F06AE070E080E090E00E947B01909300
:102C600035078093340740E050E0BA010E944401E8
:102C70006AE070E080E090E00E947B01909335076D
:102C8000809334070E94100280915A07811103C07B
:102C900081E080935A0780915407811103C081E03D
:102CA00080935407089560E070E080E89FE70895FE
:102CB00060E070E080E89FE7089560E070E080E801
:102CC0009FEF089560E070E080E89FEF089560E076
:102CD00070E080EC9FEF089560E070E080EC9FEF83
:102CE0000895F5DF60939C0770939D0780939E077E
:102CF00090939F07F1DF6093900770939107809303
:102D0000920790939307CFDF60939807709399078A
:102D100080939A0790939B07CBDF609394077093FF
:102D200095078093960790939707C7DF6093A00756
:102D30007093A1078093A2079093A307C3DF6093CA
:102D4000A4077093A5078093A6079093A7070895FB
:102D5000CF92DF92EF92FF92CF936B017C01AC0197
:102D60009B01609198077091990780919A079091C3
:102D70009B07F6D1C1E0882369F0A7019601609115
:102D8000A0077091A1078091A2079091A307E8D1B5
:102D90008111C0E08C2FCF91FF90EF90DF90CF900A
:102DA0000895CF92DF92EF92FF92CF936B017C0157
:102DB000AC019B01609194077091950780919607F3
:102DC00090919707CDD1C1E0882369F0A7019601C2
:102DD0006091A4077091A5078091A6079091A7071D
:102DE000BFD18111C0E08C2FCF91FF90EF90DF9089
:102DF000CF9008950F931F938B019C0100271127FB
:102E000020783F770115110520483F4749F4AB0171
:102E1000BC016F77772781E0452B462B472B09F4C0
:102E200080E01F910F910895E5CF40E052EC61E002
:102E300070E090E080E008D061E08DE00E941F1F0C
:102E400060E08DE00C945B1F8130910579F01CF4FB
:102E5000892B39F008958230910561F0039771F064
:102E6000089526E086EB94E00C94522026E083E55A
:102E700095E0FACF26E080EF95E0F6CF26E08DE8EA
:102E800096E0F2CF1F920F920FB60F9211240BB65D
:102E90000F922F933F934F935F936F937F938F93F3
:102EA0009F93AF93BF93EF93FF938DEA98EF909327
:102EB0002501809324018091AB049091AC0401978B
:102EC00019F461E08DE0F7D734D0FF91EF91BF9115
:102ED000AF919F918F917F916F915F914F913F91B2
:102EE0002F910F900BBE0F900FBE0F901F90189553
:102EF0008DEA98EF9093250180932401A3E7B0E039
:102F00008C918E7F8C93E0E2F1E080818C7F8083D6
:102F1000E1E2F1E08081877E80838081846080832C
:102F200080818C7F80838C9181608C93089581E077
:102F300008958091AA0491E0980F9093AA048823A1
:102F400049F021E030E03093AC042093AB0480934F
:102F5000AA04089578940E949E0FF8948091AA0480
:102F60008150F5CFCF93DF931092A9071092A80755
:102F7000CAD55BDFC091CA02D091CB0219821882F8
:102F8000A6DCF894B5DF81E028813981232B09F094
:102F900080E08093A807789478948091A8078111A5
:102FA00007C095DDF89490E080E0DF91CF9108951F
:102FB00081E028813981232B09F480E08093A907DF
:102FC0009091A90781E0911180E08093A807AFDF7D
:102FD000E4CF5058BB27AA270ED084C275D230F058
:102FE0007AD220F031F49F3F11F41EF445C20EF462
:102FF000E095E7FB12C2E92F86D280F3BA17620789
:1030000073078407950718F071F49EF5B5C20EF4A6
:10301000E0950B2EBA2FA02D0B01B90190010C01E8
:10302000CA01A0011124FF27591B99F0593F50F400
:10303000503E68F11A16F040A22F232F342F442758
:10304000585FF3CF469537952795A795F040539550
:10305000C9F77EF41F16BA0B620B730B840BBAF020
:103060009150A1F0FF0FBB1F661F771F881FC2F78B
:103070000EC0BA0F621F731F841F48F4879577959F
:103080006795B795F7959E3F08F0B3CF9395880F56
:1030900008F09927EE0F97958795089515D258F067
:1030A00080E891E009F49EEF16D228F040E851E064
:1030B00059F45EEF09C0E0C15FC2E92FE07823D286
:1030C00068F3092E052AC1F3261737074807590761
:1030D00038F00E2E07F8E02569F0E025E0640AC01C
:1030E000EF6307F8009407FADB01B9019D01DC01E9
:1030F000CA01AD01EF9345D0F5D10AD05F915523B8
:1031000031F02BED3FE049E450FD49EC63CF0895E9
:10311000DF93DD27B92FBF7740E85FE31616170668
:1031200048075B0710F4D92F32D29F938F937F9378
:103130006F9397D2E4EEF0E0A2D1D4D12F913F91DA
:103140004F915F9137D2DD2349F09058A2EA2AEDE2
:103150003FE049EC5FE3D0785D274DDFDF91C2C1EE
:1031600038D108F481E00895B6D140F0ADD130F007
:1031700021F45F3F19F051C15111FFC17DC1C3D18D
:1031800098F39923C9F35523B1F3951B550BBB272E
:10319000AA2762177307840738F09F5F5F4F220FDB
:1031A000331F441FAA1FA9F333D00E2E3AF0E0E8D4
:1031B00030D091505040E695001CCAF729D0FE2F20
:1031C00027D0660F771F881FBB1F261737074807B2
:1031D000AB07B0E809F0BB0B802DBF01FF27935868
:1031E0005F4F2AF09E3F510568F017C1C6C15F3F8F
:1031F000ECF3983EDCF3869577956795B795F79550
:103200009F5FC9F7880F911D9695879597F9089547
:10321000E1E0660F771F881FBB1F621773078407E3
:10322000BA0720F0621B730B840BBA0BEE1F88F7F2
:10323000E095089504D06894B1119FC108956BD1B1
:1032400088F09F5790F0B92F9927B751A0F0D1F08F
:10325000660F771F881F991F1AF0BA95C9F712C019
:10326000B13081F089D1B1E0089586C1672F782F00
:103270008827B85F39F0B93FCCF386957795679585
:10328000B395D9F73EF490958095709561957F4FF1
:103290008F4F9F4F0895E89409C097FB3EF4909597
:1032A0008095709561957F4F8F4F9F4F9923A9F01F
:1032B000F92F96E9BB279395F695879577956795AE
:1032C000B795F111F8CFFAF4BB0F11F460FF1BC0F2
:1032D0006F5F7F4F8F4F9F4F16C0882311F096E985
:1032E00011C0772321F09EE8872F762F05C0662333
:1032F00071F096E8862F70E060E02AF09A95660FEC
:10330000771F881FDAF7880F9695879597F90895A4
:103310001CD180F09F3740F491110EF02EC160E077
:1033200070E080E89FEB089526F41B16611D711D67
:10333000811D79C093C0C8D018F011F0CCD038F4FA
:103340009BC01BC1E92FDFD0B0F35523C9F3E7FBC6
:103350006217730784079507A8F199F3E92FFF27F0
:1033600088232AF03197660F771F881FDAF7952F89
:103370005527442332F091505040220F331F441FF1
:10338000D2F7BB27E91BF50B621B730B840BB1094A
:10339000C1F222F4620F731F841FB11D31972AF00E
:1033A000660F771F881FBB1FEFCF915050405AF018
:1033B00041F0882332F0660F771F881F91505040EC
:1033C000C1F793954BC08695779567959F5FD9F721
:1033D000F8CF990F0008550FAA0BE0E8FEEF16167C
:1033E0001706E807F907C0F012161306E407F507F9
:1033F00098F0621B730B840B950B39F40A2661F06D
:10340000232B242B252B21F408950A2609F4A1400F
:10341000A6958FEF811D811D089597F99F6780E81C
:1034200070E060E00895882371F4772321F09850CC
:10343000872B762F07C0662311F499270DC0905172
:10344000862B70E060E02AF09A95660F771F881F40
:10345000DAF7880F9695879597F908959F3F31F091
:10346000915020F4879577956795B795880F911DB2
:103470009695879597F908959FEF80EC0895DF93CF
:10348000CF931F930F93FF92EF92DF927B018C01FA
:10349000689405C0DA2EEF018DD0FE01E894A59165
:1034A0002591359145915591AEF3EF01A4DDFE01D3
:1034B0009701A801DA9479F7DF90EF90FF900F91D0
:1034C0001F91CF91DF91089500240A9416161706D4
:1034D00018060906089500240A9412161306140605
:1034E00005060895092E0394000C11F4882352F068
:1034F000BB0F40F4BF2B11F460FF04C06F5F7F4F20
:103500008F4F9F4F089557FD9058440F551F59F006
:103510005F3F71F04795880F97FB991F61F09F3FC0
:1035200079F087950895121613061406551FF2CFE9
:103530004695F1DF08C0161617061806991FF1CF39
:1035400086957105610508940895E5DFA0F0BEE752
:10355000B91788F4BB279F3860F41616B11D672F82
:10356000782F8827985FF7CF869577956795B11D57
:1035700093959639C8F30895E894BB276627772773
:10358000CB0197F9089525DF08F48FEF08959B018B
:10359000AC0160E070E080E89FE366C00BD0A2CF92
:1035A00093DF28F098DF18F0952309F036CF64CF29
:1035B0001124E3CFA8DFA0F3959FD1F3950F50E03E
:1035C000551F629FF001729FBB27F00DB11D639FD5
:1035D000AA27F00DB11DAA1F649F6627B00DA11D7B
:1035E000661F829F2227B00DA11D621F739FB00D21
:1035F000A11D621F839FA00D611D221F749F332791
:10360000A00D611D231F849F600D211D822F762F29
:103610006A2F11249F5750408AF0E1F088234AF026
:10362000EE0FFF1FBB1F661F771F881F9150504072
:10363000A9F79E3F510570F0F0CE9FCF5F3FECF3AE
:10364000983EDCF3869577956795B795F795E7955E
:103650009F5FC1F7FE2B880F911D9695879597F96F
:1036600008959B01AC019ACF8ADD3CCF0895883044
:1036700008F075C0E82FF0E0EE0FFF1FEE57FD4F8A
:10368000718360838150873008F03CC0E82FF0E000
:103690008827E35BF44E8F4FE4C78A1B541B5C1BE7
:1036A000681B751B961BA31B809169008C7F482BA0
:1036B00040936900E89A089580916900837F440FE0
:1036C000551F440F551F482B40936900E99A0895F0
:1036D000809169008F7C74E0440F551F7A95E1F763
:1036E000482B40936900EA9A0895809169008F738E
:1036F00066E0440F551F6A95E1F7482B4093690037
:10370000EB9A089580916A008C7F482B40936A0061
:10371000EC9A089580916A00837F440F551F440FEF
:10372000551F482B40936A00ED9A089580916A00D6
:103730008F7C24E0440F551F2A95E1F7482B4093D6
:103740006A00EE9A089580916A008F7396E0440FA4
:10375000551F9A95E1F7482B40936A00EF9A089518
:103760001F920F920FB60F9211240BB60F922F9348
:103770003F934F935F936F937F938F939F93AF93F9
:10378000BF93EF93FF93E0918602F0918702199522
:10379000FF91EF91BF91AF919F918F917F916F9129
:1037A0005F914F913F912F910F900BBE0F900FBEE5
:1037B0000F901F9018951F920F920FB60F92112421
:1037C0000BB60F922F933F934F935F936F937F931B
:1037D0008F939F93AF93BF93EF93FF93E0918802F2
:1037E000F09189021995FF91EF91BF91AF919F914F
:1037F0008F917F916F915F914F913F912F910F909A
:103800000BBE0F900FBE0F901F9018951F920F9236
:103810000FB60F9211240BB60F922F933F934F9335
:103820005F936F937F938F939F93AF93BF93EF9328
:10383000FF93E0918A02F0918B021995FF91EF912D
:10384000BF91AF919F918F917F916F915F914F91B8
:103850003F912F910F900BBE0F900FBE0F901F90B6
:1038600018951F920F920FB60F9211240BB60F925C
:103870002F933F934F935F936F937F938F939F9378
:10388000AF93BF93EF93FF93E0918C02F0918D0281
:103890001995FF91EF91BF91AF919F918F917F917A
:1038A0006F915F914F913F912F910F900BBE0F90B1
:1038B0000FBE0F901F9018951F920F920FB60F9288
:1038C00011240BB60F922F933F934F935F936F93F7
:1038D0007F938F939F93AF93BF93EF93FF93E09169
:1038E0008202F09183021995FF91EF91BF91AF9100
:1038F0009F918F917F916F915F914F913F912F9108
:103900000F900BBE0F900FBE0F901F9018951F9237
:103910000F920FB60F9211240BB60F922F933F9375
:103920004F935F936F937F938F939F93AF93BF93C7
:10393000EF93FF93E0918402F09185021995FF9136
:10394000EF91BF91AF919F918F917F916F915F9117
:103950004F913F912F910F900BBE0F900FBE0F9084
:103960001F9018951F920F920FB60F9211240BB64D
:103970000F922F933F934F935F936F937F938F9308
:103980009F93AF93BF93EF93FF93E0918E02F091DB
:103990008F021995FF91EF91BF91AF919F918F91F8
:1039A0007F916F915F914F913F912F910F900BBE3F
:1039B0000F900FBE0F901F9018951F920F920FB689
:1039C0000F9211240BB60F922F933F934F935F9357
:1039D0006F937F938F939F93AF93BF93EF93FF93D7
:1039E000E0919002F09191021995FF91EF91BF91B2
:1039F000AF919F918F917F916F915F914F913F9187
:103A00002F910F900BBE0F900FBE0F901F90189527
:103A10001F920F920FB60F9211242F933F938F9303
:103A20009F93AF93BF938091AE049091AF04A09108
:103A3000B004B091B1043091AD0423E0230F2D37D1
:103A400058F50196A11DB11D2093AD048093AE04DD
:103A50009093AF04A093B004B093B1048091B204EA
:103A60009091B304A091B404B091B5040196A11D46
:103A7000B11D8093B2049093B304A093B404B093A7
:103A8000B504BF91AF919F918F913F912F910F906E
:103A90000FBE0F901F90189526E8230F0296A11DC8
:103AA000B11DD2CF2FB7F8946091AE047091AF04DE
:103AB0008091B0049091B1042FBF08953FB7F8945E
:103AC0008091B2049091B304A091B404B091B50474
:103AD00026B5A89B05C02F3F19F00196A11DB11D69
:103AE0003FBFBA2FA92F982F8827BC01CD01620FA5
:103AF000711D811D911D42E0660F771F881F991F60
:103B00004A95D1F70895789484B5826084BD84B5D0
:103B1000816084BD85B5826085BD85B5816085BDC8
:103B2000EEE6F0E0808181608083E1E8F0E01082E1
:103B3000808182608083808181608083E0E8F0E022
:103B4000808181608083E1EBF0E08081846080830C
:103B5000E0EBF0E0808181608083E1E9F0E080814A
:103B600082608083808181608083E0E9F0E08081F1
:103B700081608083E1EAF0E08081826080838081DF
:103B800081608083E0EAF0E0808181608083E1E20F
:103B9000F1E0808182608083808181608083E0E2C7
:103BA000F1E0808181608083EAE7F0E080818460D9
:103BB0008083808182608083808181608083808136
:103BC000806880831092C10008951F93CF93DF9384
:103BD000182FEB0161E033D1209731F460E0812FA1
:103BE000DF91CF911F9167C1CF3FD10511F461E003
:103BF000F6CFE12FF0E0EE5EFE4FE491E150E231CE
:103C000008F0B2C0F0E08827E85FF14E8F4F29C579
:103C10001A1E221E271E311E3B1EB41E451E4D1E9F
:103C2000551E5F1E691E731E821E8C1EB41E961EBC
:103C3000A01EAA1E84B5806884BDC7BDDF91CF9148
:103C40001F91089584B5806284BDC8BDF7CF80916F
:103C50008000806880938000D0938900C0938800A2
:103C6000EDCF80918000806280938000D0938B00A4
:103C7000C0938A00E3CF80918000886080938000A9
:103C8000D0938D00C0938C00D9CF8091B000806814
:103C90008093B000C093B300D1CF8091B000806218
:103CA0008093B000C093B400C9CF80919000806829
:103CB00080939000D0939900C0939800BFCF8091DB
:103CC0009000806280939000D0939B00C0939A00F4
:103CD000B5CF80919000886080939000D0939D0034
:103CE000C0939C00ABCF8091A00080688093A0001F
:103CF0008091A0008F7B8093A000D093A900C093F7
:103D0000A8009CCF8091A00080628093A000D093F7
:103D1000AB00C093AA0092CF8091A00088608093EE
:103D2000A000D093AD00C093AC0088CF809120015B
:103D3000806880932001D0932901C09328017ECF11
:103D400080912001806280932001D0932B01C09349
:103D50002A0174CF80912001886080932001D09344
:103D60002D01C0932C016ACFC038D1050CF03FCF94
:103D700035CF8150823108F059C0E82FF0E0882714
:103D8000EC53F14E8F4F6DC4E41EE81ED61EDC1EB0
:103D9000E01E161FEB1EF11EF51EFB1EFF1E031F6D
:103DA000091F0D1F161F111F171F1B1F8091800059
:103DB0008F77809380000895809180008F7DF9CF68
:103DC00080918000877FF5CF84B58F7784BD08957B
:103DD00084B58F7DFBCF8091B0008F778093B0004A
:103DE00008958091B0008F7DF9CF809190008F77FA
:103DF000809390000895809190008F7DF9CF8091FD
:103E00009000877FF5CF8091A0008F778093A000EE
:103E100008958091A0008F7DF9CF8091A000877FC9
:103E2000F5CF809120018F778093200108958091B4
:103E300020018F7DF9CF80912001877FF5CFCF932F
:103E4000DF9390E0FC01E85AFE4F249182569E4F8A
:103E5000FC0184918823C9F090E0880F991FFC0130
:103E6000E250FE4FA591B491FC01EC51FE4FC5917B
:103E7000D49161110DC09FB7F8948C912095822345
:103E80008C938881282328839FBFDF91CF91089549
:103E9000623051F49FB7F8943C91822F8095832330
:103EA0008C93E8812E2BEFCF8FB7F894EC912E2BCB
:103EB0002C938FBFEACF1F93CF93DF93282F30E04F
:103EC000F901EE5EFE4F8491F901E85AFE4FD4915C
:103ED000F901E256FE4FC491CC23A1F0162F8111B7
:103EE00048DFEC2FF0E0EE0FFF1FEC51FE4FA591E5
:103EF000B4918FB7F894EC91111108C0D095DE23DE
:103F0000DC938FBFDF91CF911F910895DE2BF8CF07
:103F1000FC01918D228D892F90E0805C9F4F821B48
:103F200091098F7399270895FC01918D828D9817BF
:103F300031F0828DE80FF11D858D90E008958FEFAF
:103F40009FEF0895FC01918D828D981761F0A28DED
:103F5000AE0FBF2FB11D5D968C91928D9F5F9F73A9
:103F6000928F90E008958FEF9FEF0895FC01538D9D
:103F7000448D252F30E0842F90E0821B930B541743
:103F800010F0CF96089501970895FC01A48DA80F15
:103F9000B92FB11DA35ABF4F2C91848D90E001968B
:103FA0008F739927848FA689B7892C93A089B189AB
:103FB0008C91837080648C93938D848D981306C04C
:103FC0000288F389E02D80818F7D80830895CF93CF
:103FD000DF93EC01888D8823B1F0AA89BB89E88939
:103FE000F9898C9185FD03C0808186FD0CC00FB6D8
:103FF00007FCF7CF8C9185FFF2CF808185FFEDCF55
:10400000CE01C3DFEACFDF91CF910895EF92FF9207
:104010000F931F93CF93DF93EC0181E0888F9B8DEB
:104020008C8D98131AC0E889F989808185FF15C0A5
:104030009FB7F894EE89FF896083E889F9898081C8
:104040008370806480839FBF81E090E0DF91CF9197
:104050001F910F91FF90EF900895F62E0B8D10E0B9
:104060000F5F1F4F0F731127E02E8C8D8E110BC029
:104070000FB607FCFACFE889F989808185FFF5CF73
:10408000CE0183DFF2CFEB8DEC0FFD2FF11DE35A54
:10409000FF4FF0829FB7F8940B8FEA89FB898081EC
:1040A0008062D0CFCF92DF92EF92FF921F93CF9397
:1040B000DF93EC016A017B01122FE889F98982E024
:1040C0008083C11481EED806E104F10499F060E028
:1040D00079E08DE390E0A7019601A1D2215031094A
:1040E000410951095695479537952795211580E146
:1040F000380790F0E889F989108260E874E88EE169
:1041000090E0A70196018BD2215031094109510954
:104110005695479537952795EC85FD853083EE8537
:10412000FF852083188EEC89FD891083EA89FB893D
:10413000808180618083EA89FB89808188608083B7
:10414000EA89FB89808180688083EA89FB89808194
:104150008F7D8083DF91CF911F91FF90EF90DF9053
:10416000CF9008951F920F920FB60F9211240BB6A5
:104170000F922F938F939F93EF93FF93E091C60439
:10418000F091C7048081E091CC04F091CD0482FDD0
:104190001DC090818091CF048F5F8F732091D004D8
:1041A000821741F0E091CF04F0E0EA54FB4F958F85
:1041B0008093CF04FF91EF919F918F912F910F905A
:1041C0000BBE0F900FBE0F901F9018958081F2CFFD
:1041D0001F920F920FB60F9211240BB60F922F93CE
:1041E0003F934F935F936F937F938F939F93AF937F
:1041F000BF93EF93FF9386EB94E0C7DEFF91EF91BF
:10420000BF91AF919F918F917F916F915F914F91EE
:104210003F912F910F900BBE0F900FBE0F901F90EC
:104220001895E6EBF4E01382128288EE93E0A0E0AA
:10423000B0E084839583A683B78380ED92E0918379
:10424000808385EC90E09587848784EC90E0978765
:10425000868780EC90E0918B808B81EC90E0938B53
:10426000828B82EC90E0958B848B86EC90E0978B30
:10427000868B118E128E138E148E08951F920F92BC
:104280000FB60F9211240BB60F922F938F939F931B
:10429000EF93FF93E0916305F09164058081E091D5
:1042A0006905F0916A0582FD1DC0908180916C05C1
:1042B0008F5F8F7320916D05821741F0E0916C053F
:1042C000F0E0ED5AFA4F958F80936C05FF91EF91D6
:1042D0009F918F912F910F900BBE0F900FBE0F905B
:1042E0001F9018958081F2CF1F920F920FB60F92F8
:1042F00011240BB60F922F933F934F935F936F93BD
:104300007F938F939F93AF93BF93EF93FF9383E537
:1043100095E03BDEFF91EF91BF91AF919F918F911F
:104320007F916F915F914F913F912F910F900BBEB5
:104330000F900FBE0F901F901895E3E5F5E01382E4
:10434000128288EE93E0A0E0B0E084839583A68398
:10435000B78380ED92E0918380838DEC90E0958728
:1043600084878CEC90E09787868788EC90E0918B2F
:10437000808B89EC90E0938B828B8AEC90E0958B1C
:10438000848B8EEC90E0978B868B118E128E138E21
:10439000148E08951F920F920FB60F9211240BB630
:1043A0000F922F938F939F93EF93FF93E0910006CB
:1043B000F09101068081E0910606F091070682FDEA
:1043C0001DC09081809109068F5F8F7320910A062E
:1043D000821741F0E0910906F0E0E051FA4F958F25
:1043E00080930906FF91EF919F918F912F910F90EC
:1043F0000BBE0F900FBE0F901F9018958081F2CFCB
:104400001F920F920FB60F9211240BB60F922F939B
:104410003F934F935F936F937F938F939F93AF934C
:10442000BF93EF93FF9380EF95E0AFDDFF91EF91A6
:10443000BF91AF919F918F917F916F915F914F91BC
:104440003F912F910F900BBE0F900FBE0F901F90BA
:104450001895E0EFF5E01382128288EE93E0A0E079
:10446000B0E084839583A683B78380ED92E0918347
:10447000808385ED90E09587848784ED90E0978731
:10448000868780ED90E0918B808B81ED90E0938B1F
:10449000828B82ED90E0958B848B86ED90E0978BFC
:1044A000868B118E128E138E148E08951F920F928A
:1044B0000FB60F9211240BB60F922F938F939F93E9
:1044C000EF93FF93E0919D06F0919E068081E0912D
:1044D000A306F091A40682FD1DC090818091A606DE
:1044E0008F5F8F732091A706821741F0E091A60697
:1044F000F0E0E357F94F958F8093A606FF91EF9177
:104500009F918F912F910F900BBE0F900FBE0F9028
:104510001F9018958081F2CF1F920F920FB60F92C5
:1045200011240BB60F922F933F934F935F936F938A
:104530007F938F939F93AF93BF93EF93FF938DE8F8
:1045400096E023DDFF91EF91BF91AF919F918F9105
:104550007F916F915F914F913F912F910F900BBE83
:104560000F900FBE0F901F901895EDE8F6E01382A4
:10457000128288EE93E0A0E0B0E084839583A68366
:10458000B78380ED92E09183808385E391E0958706
:10459000848784E391E09787868780E391E0918B1D
:1045A000808B81E391E0938B828B82E391E0958B0A
:1045B000848B86E391E0978B868B118E128E138EFF
:1045C000148E0895AF92BF92CF92DF92EF92FF9236
:1045D0000F931F93CF93DF936C017B018B01040F2B
:1045E000151FEB015E01AE18BF08C017D10759F0C7
:1045F0006991D601ED91FC910190F081E02DC60109
:104600001995892B79F7C501DF91CF911F910F91F2
:10461000FF90EF90DF90CF90BF90AF900895A1E210
:104620001A2EAA1BBB1BFD010DC0AA1FBB1FEE1F2C
:10463000FF1FA217B307E407F50720F0A21BB30B77
:10464000E40BF50B661F771F881F991F1A9469F7F3
:1046500060957095809590959B01AC01BD01CF014F
:104660000895EE0FFF1F881F8BBF0790F691E02D76
:10467000199405D0332312F48A1B9B0B10C0A29F00
:10468000B001B39FC001A39F700D811D1124911D26
:10469000B29F700D811D1124911D0895F0DFB7FFA9
:0C46A0000895821B930B0895F894FFCF3F
:1046AC00E803BEA00B397B1B9A3B755F81C1700080
:1046BC0018BF9548BCBD027669BE8FC2F53C0000A0
:1046CC000000000000000000803F0000000000001F
:1046DC00244300C0B2440000CA4200007F430000E3
:1046EC007F430000000000007F4300007F43000078
:1046FC0000000AD7233D0AD7A33C0000000048E184
:10470C007A3F555505429A9999409A9999C00080DB
:10471C005442008054420000000000000000008061
:10472C000080361B361B361B361B361B361B361BC6
:10473C00361B0001FFFF0607FFFFFFFFFFFFFFFF18
:10474C00FFFF0504030200000000EB0719088807AF
:10475C00B4078B079207A50746697865645374659F
:10476C007044697363726574650006040000000090
:0E477C000620E222B61FE71F881FA21F941F0F
:00000001FF
